{
  "_format": "hh3-artifact-1",
  "contractName": "League",
  "sourceName": "contracts/League.sol",
  "abi": [
    {
      "inputs": [],
      "name": "ECDSAInvalidSignature",
      "type": "error"
    },
    {
      "inputs": [
        {
          "internalType": "uint256",
          "name": "length",
          "type": "uint256"
        }
      ],
      "name": "ECDSAInvalidSignatureLength",
      "type": "error"
    },
    {
      "inputs": [
        {
          "internalType": "bytes32",
          "name": "s",
          "type": "bytes32"
        }
      ],
      "name": "ECDSAInvalidSignatureS",
      "type": "error"
    },
    {
      "inputs": [],
      "name": "ReentrancyGuardReentrantCall",
      "type": "error"
    },
    {
      "inputs": [
        {
          "internalType": "address",
          "name": "token",
          "type": "address"
        }
      ],
      "name": "SafeERC20FailedOperation",
      "type": "error"
    },
    {
      "anonymous": false,
      "inputs": [
        {
          "indexed": true,
          "internalType": "address",
          "name": "payer",
          "type": "address"
        },
        {
          "indexed": false,
          "internalType": "uint256",
          "name": "amount",
          "type": "uint256"
        },
        {
          "indexed": false,
          "internalType": "address",
          "name": "token",
          "type": "address"
        }
      ],
      "name": "BuyInReceived",
      "type": "event"
    },
    {
      "anonymous": false,
      "inputs": [
        {
          "indexed": true,
          "internalType": "address",
          "name": "oldCommissioner",
          "type": "address"
        },
        {
          "indexed": true,
          "internalType": "address",
          "name": "newCommissioner",
          "type": "address"
        }
      ],
      "name": "CommissionerTransferred",
      "type": "event"
    },
    {
      "anonymous": false,
      "inputs": [
        {
          "components": [
            {
              "internalType": "uint32",
              "name": "timePerPickSeconds",
              "type": "uint32"
            },
            {
              "internalType": "bool",
              "name": "thirdRoundReversal",
              "type": "bool"
            },
            {
              "internalType": "uint32",
              "name": "salaryCapBudget",
              "type": "uint32"
            },
            {
              "internalType": "uint8",
              "name": "playerPool",
              "type": "uint8"
            }
          ],
          "indexed": false,
          "internalType": "struct League.DraftExtras",
          "name": "extras",
          "type": "tuple"
        }
      ],
      "name": "DraftExtrasUpdated",
      "type": "event"
    },
    {
      "anonymous": false,
      "inputs": [
        {
          "components": [
            {
              "internalType": "enum League.DraftType",
              "name": "draftType",
              "type": "uint8"
            },
            {
              "internalType": "uint64",
              "name": "draftTimestamp",
              "type": "uint64"
            },
            {
              "internalType": "enum League.OrderMode",
              "name": "orderMode",
              "type": "uint8"
            },
            {
              "internalType": "bool",
              "name": "draftCompleted",
              "type": "bool"
            }
          ],
          "indexed": false,
          "internalType": "struct League.DraftConfig",
          "name": "cfg",
          "type": "tuple"
        },
        {
          "indexed": false,
          "internalType": "address[]",
          "name": "manualOrder",
          "type": "address[]"
        },
        {
          "indexed": false,
          "internalType": "bool",
          "name": "draftPickTradingEnabled",
          "type": "bool"
        }
      ],
      "name": "DraftSettingsUpdated",
      "type": "event"
    },
    {
      "anonymous": false,
      "inputs": [
        {
          "indexed": false,
          "internalType": "bytes32",
          "name": "hash",
          "type": "bytes32"
        }
      ],
      "name": "JoinPasswordSet",
      "type": "event"
    },
    {
      "anonymous": false,
      "inputs": [
        {
          "indexed": true,
          "internalType": "address",
          "name": "signer",
          "type": "address"
        }
      ],
      "name": "JoinSignerSet",
      "type": "event"
    },
    {
      "anonymous": false,
      "inputs": [
        {
          "indexed": true,
          "internalType": "address",
          "name": "player",
          "type": "address"
        }
      ],
      "name": "LeagueJoined",
      "type": "event"
    },
    {
      "anonymous": false,
      "inputs": [
        {
          "components": [
            {
              "internalType": "string",
              "name": "leagueName",
              "type": "string"
            },
            {
              "internalType": "string",
              "name": "leagueLogo",
              "type": "string"
            },
            {
              "internalType": "uint8",
              "name": "numberOfTeams",
              "type": "uint8"
            },
            {
              "internalType": "uint8",
              "name": "waiverType",
              "type": "uint8"
            },
            {
              "internalType": "uint64",
              "name": "waiverBudget",
              "type": "uint64"
            },
            {
              "internalType": "uint64",
              "name": "waiverMinBid",
              "type": "uint64"
            },
            {
              "internalType": "uint8",
              "name": "waiverClearance",
              "type": "uint8"
            },
            {
              "internalType": "uint8",
              "name": "waiversAfterDropDays",
              "type": "uint8"
            },
            {
              "internalType": "uint8",
              "name": "tradeReviewDays",
              "type": "uint8"
            },
            {
              "internalType": "uint8",
              "name": "tradeDeadlineWeek",
              "type": "uint8"
            },
            {
              "internalType": "uint8",
              "name": "leagueType",
              "type": "uint8"
            },
            {
              "internalType": "bool",
              "name": "extraGameVsMedian",
              "type": "bool"
            },
            {
              "internalType": "bool",
              "name": "preventDropAfterKickoff",
              "type": "bool"
            },
            {
              "internalType": "bool",
              "name": "lockAllMoves",
              "type": "bool"
            }
          ],
          "indexed": false,
          "internalType": "struct League.LeagueSettings",
          "name": "s",
          "type": "tuple"
        }
      ],
      "name": "LeagueSettingsUpdated",
      "type": "event"
    },
    {
      "anonymous": false,
      "inputs": [
        {
          "components": [
            {
              "internalType": "uint8",
              "name": "qb",
              "type": "uint8"
            },
            {
              "internalType": "uint8",
              "name": "rb",
              "type": "uint8"
            },
            {
              "internalType": "uint8",
              "name": "wr",
              "type": "uint8"
            },
            {
              "internalType": "uint8",
              "name": "te",
              "type": "uint8"
            },
            {
              "internalType": "uint8",
              "name": "flexWRT",
              "type": "uint8"
            },
            {
              "internalType": "uint8",
              "name": "flexWR",
              "type": "uint8"
            },
            {
              "internalType": "uint8",
              "name": "flexWT",
              "type": "uint8"
            },
            {
              "internalType": "uint8",
              "name": "superFlexQWRT",
              "type": "uint8"
            },
            {
              "internalType": "uint8",
              "name": "idpFlex",
              "type": "uint8"
            },
            {
              "internalType": "uint8",
              "name": "k",
              "type": "uint8"
            },
            {
              "internalType": "uint8",
              "name": "dst",
              "type": "uint8"
            },
            {
              "internalType": "uint8",
              "name": "dl",
              "type": "uint8"
            },
            {
              "internalType": "uint8",
              "name": "lb",
              "type": "uint8"
            },
            {
              "internalType": "uint8",
              "name": "db",
              "type": "uint8"
            },
            {
              "internalType": "uint8",
              "name": "bench",
              "type": "uint8"
            },
            {
              "internalType": "uint8",
              "name": "ir",
              "type": "uint8"
            }
          ],
          "indexed": false,
          "internalType": "struct League.RosterSettings",
          "name": "s",
          "type": "tuple"
        }
      ],
      "name": "RosterSettingsUpdated",
      "type": "event"
    },
    {
      "anonymous": false,
      "inputs": [
        {
          "indexed": true,
          "internalType": "address",
          "name": "owner",
          "type": "address"
        },
        {
          "indexed": false,
          "internalType": "string",
          "name": "name",
          "type": "string"
        },
        {
          "indexed": true,
          "internalType": "uint256",
          "name": "index",
          "type": "uint256"
        }
      ],
      "name": "TeamCreated",
      "type": "event"
    },
    {
      "anonymous": false,
      "inputs": [
        {
          "indexed": true,
          "internalType": "address",
          "name": "owner",
          "type": "address"
        },
        {
          "indexed": false,
          "internalType": "string",
          "name": "name",
          "type": "string"
        },
        {
          "indexed": false,
          "internalType": "string",
          "name": "logoURI",
          "type": "string"
        },
        {
          "indexed": false,
          "internalType": "uint64",
          "name": "updatedAt",
          "type": "uint64"
        }
      ],
      "name": "TeamProfileUpdated",
      "type": "event"
    },
    {
      "anonymous": false,
      "inputs": [
        {
          "indexed": true,
          "internalType": "address",
          "name": "owner",
          "type": "address"
        },
        {
          "indexed": false,
          "internalType": "string",
          "name": "oldName",
          "type": "string"
        },
        {
          "indexed": false,
          "internalType": "string",
          "name": "newName",
          "type": "string"
        }
      ],
      "name": "TeamRenamed",
      "type": "event"
    },
    {
      "anonymous": false,
      "inputs": [
        {
          "indexed": true,
          "internalType": "address",
          "name": "to",
          "type": "address"
        },
        {
          "indexed": false,
          "internalType": "uint256",
          "name": "amount",
          "type": "uint256"
        }
      ],
      "name": "WithdrawnNative",
      "type": "event"
    },
    {
      "anonymous": false,
      "inputs": [
        {
          "indexed": true,
          "internalType": "address",
          "name": "to",
          "type": "address"
        },
        {
          "indexed": false,
          "internalType": "uint256",
          "name": "amount",
          "type": "uint256"
        }
      ],
      "name": "WithdrawnToken",
      "type": "event"
    },
    {
      "inputs": [
        {
          "internalType": "address",
          "name": "owner",
          "type": "address"
        },
        {
          "internalType": "string",
          "name": "newName",
          "type": "string"
        },
        {
          "internalType": "string",
          "name": "newLogoURI",
          "type": "string"
        }
      ],
      "name": "adminSetTeamProfile",
      "outputs": [],
      "stateMutability": "nonpayable",
      "type": "function"
    },
    {
      "inputs": [],
      "name": "buyInAmount",
      "outputs": [
        {
          "internalType": "uint256",
          "name": "",
          "type": "uint256"
        }
      ],
      "stateMutability": "view",
      "type": "function"
    },
    {
      "inputs": [],
      "name": "buyInToken",
      "outputs": [
        {
          "internalType": "address",
          "name": "",
          "type": "address"
        }
      ],
      "stateMutability": "view",
      "type": "function"
    },
    {
      "inputs": [],
      "name": "clearJoinPassword",
      "outputs": [],
      "stateMutability": "nonpayable",
      "type": "function"
    },
    {
      "inputs": [],
      "name": "commissioner",
      "outputs": [
        {
          "internalType": "address",
          "name": "",
          "type": "address"
        }
      ],
      "stateMutability": "view",
      "type": "function"
    },
    {
      "inputs": [
        {
          "internalType": "string",
          "name": "_teamName",
          "type": "string"
        },
        {
          "internalType": "string",
          "name": "password",
          "type": "string"
        }
      ],
      "name": "createTeam",
      "outputs": [],
      "stateMutability": "nonpayable",
      "type": "function"
    },
    {
      "inputs": [
        {
          "internalType": "string",
          "name": "_teamName",
          "type": "string"
        },
        {
          "internalType": "uint256",
          "name": "deadline",
          "type": "uint256"
        },
        {
          "internalType": "bytes",
          "name": "sig",
          "type": "bytes"
        }
      ],
      "name": "createTeamWithSig",
      "outputs": [],
      "stateMutability": "nonpayable",
      "type": "function"
    },
    {
      "inputs": [],
      "name": "createdAt",
      "outputs": [
        {
          "internalType": "uint256",
          "name": "",
          "type": "uint256"
        }
      ],
      "stateMutability": "view",
      "type": "function"
    },
    {
      "inputs": [],
      "name": "draftConfig",
      "outputs": [
        {
          "internalType": "enum League.DraftType",
          "name": "draftType",
          "type": "uint8"
        },
        {
          "internalType": "uint64",
          "name": "draftTimestamp",
          "type": "uint64"
        },
        {
          "internalType": "enum League.OrderMode",
          "name": "orderMode",
          "type": "uint8"
        },
        {
          "internalType": "bool",
          "name": "draftCompleted",
          "type": "bool"
        }
      ],
      "stateMutability": "view",
      "type": "function"
    },
    {
      "inputs": [],
      "name": "draftExtras",
      "outputs": [
        {
          "internalType": "uint32",
          "name": "timePerPickSeconds",
          "type": "uint32"
        },
        {
          "internalType": "bool",
          "name": "thirdRoundReversal",
          "type": "bool"
        },
        {
          "internalType": "uint32",
          "name": "salaryCapBudget",
          "type": "uint32"
        },
        {
          "internalType": "uint8",
          "name": "playerPool",
          "type": "uint8"
        }
      ],
      "stateMutability": "view",
      "type": "function"
    },
    {
      "inputs": [],
      "name": "draftPickTradingEnabled",
      "outputs": [
        {
          "internalType": "bool",
          "name": "",
          "type": "bool"
        }
      ],
      "stateMutability": "view",
      "type": "function"
    },
    {
      "inputs": [],
      "name": "escrowBalances",
      "outputs": [
        {
          "internalType": "uint256",
          "name": "nativeBalance",
          "type": "uint256"
        },
        {
          "internalType": "uint256",
          "name": "tokenBalance",
          "type": "uint256"
        }
      ],
      "stateMutability": "view",
      "type": "function"
    },
    {
      "inputs": [],
      "name": "getDraftExtras",
      "outputs": [
        {
          "components": [
            {
              "internalType": "uint32",
              "name": "timePerPickSeconds",
              "type": "uint32"
            },
            {
              "internalType": "bool",
              "name": "thirdRoundReversal",
              "type": "bool"
            },
            {
              "internalType": "uint32",
              "name": "salaryCapBudget",
              "type": "uint32"
            },
            {
              "internalType": "uint8",
              "name": "playerPool",
              "type": "uint8"
            }
          ],
          "internalType": "struct League.DraftExtras",
          "name": "",
          "type": "tuple"
        }
      ],
      "stateMutability": "view",
      "type": "function"
    },
    {
      "inputs": [],
      "name": "getDraftSettings",
      "outputs": [
        {
          "internalType": "enum League.DraftType",
          "name": "",
          "type": "uint8"
        },
        {
          "internalType": "uint64",
          "name": "",
          "type": "uint64"
        },
        {
          "internalType": "enum League.OrderMode",
          "name": "",
          "type": "uint8"
        },
        {
          "internalType": "bool",
          "name": "",
          "type": "bool"
        },
        {
          "internalType": "address[]",
          "name": "",
          "type": "address[]"
        },
        {
          "internalType": "bool",
          "name": "",
          "type": "bool"
        }
      ],
      "stateMutability": "view",
      "type": "function"
    },
    {
      "inputs": [],
      "name": "getLeagueSettings",
      "outputs": [
        {
          "components": [
            {
              "internalType": "string",
              "name": "leagueName",
              "type": "string"
            },
            {
              "internalType": "string",
              "name": "leagueLogo",
              "type": "string"
            },
            {
              "internalType": "uint8",
              "name": "numberOfTeams",
              "type": "uint8"
            },
            {
              "internalType": "uint8",
              "name": "waiverType",
              "type": "uint8"
            },
            {
              "internalType": "uint64",
              "name": "waiverBudget",
              "type": "uint64"
            },
            {
              "internalType": "uint64",
              "name": "waiverMinBid",
              "type": "uint64"
            },
            {
              "internalType": "uint8",
              "name": "waiverClearance",
              "type": "uint8"
            },
            {
              "internalType": "uint8",
              "name": "waiversAfterDropDays",
              "type": "uint8"
            },
            {
              "internalType": "uint8",
              "name": "tradeReviewDays",
              "type": "uint8"
            },
            {
              "internalType": "uint8",
              "name": "tradeDeadlineWeek",
              "type": "uint8"
            },
            {
              "internalType": "uint8",
              "name": "leagueType",
              "type": "uint8"
            },
            {
              "internalType": "bool",
              "name": "extraGameVsMedian",
              "type": "bool"
            },
            {
              "internalType": "bool",
              "name": "preventDropAfterKickoff",
              "type": "bool"
            },
            {
              "internalType": "bool",
              "name": "lockAllMoves",
              "type": "bool"
            }
          ],
          "internalType": "struct League.LeagueSettings",
          "name": "s",
          "type": "tuple"
        }
      ],
      "stateMutability": "view",
      "type": "function"
    },
    {
      "inputs": [],
      "name": "getRosterSettings",
      "outputs": [
        {
          "components": [
            {
              "internalType": "uint8",
              "name": "qb",
              "type": "uint8"
            },
            {
              "internalType": "uint8",
              "name": "rb",
              "type": "uint8"
            },
            {
              "internalType": "uint8",
              "name": "wr",
              "type": "uint8"
            },
            {
              "internalType": "uint8",
              "name": "te",
              "type": "uint8"
            },
            {
              "internalType": "uint8",
              "name": "flexWRT",
              "type": "uint8"
            },
            {
              "internalType": "uint8",
              "name": "flexWR",
              "type": "uint8"
            },
            {
              "internalType": "uint8",
              "name": "flexWT",
              "type": "uint8"
            },
            {
              "internalType": "uint8",
              "name": "superFlexQWRT",
              "type": "uint8"
            },
            {
              "internalType": "uint8",
              "name": "idpFlex",
              "type": "uint8"
            },
            {
              "internalType": "uint8",
              "name": "k",
              "type": "uint8"
            },
            {
              "internalType": "uint8",
              "name": "dst",
              "type": "uint8"
            },
            {
              "internalType": "uint8",
              "name": "dl",
              "type": "uint8"
            },
            {
              "internalType": "uint8",
              "name": "lb",
              "type": "uint8"
            },
            {
              "internalType": "uint8",
              "name": "db",
              "type": "uint8"
            },
            {
              "internalType": "uint8",
              "name": "bench",
              "type": "uint8"
            },
            {
              "internalType": "uint8",
              "name": "ir",
              "type": "uint8"
            }
          ],
          "internalType": "struct League.RosterSettings",
          "name": "s",
          "type": "tuple"
        }
      ],
      "stateMutability": "view",
      "type": "function"
    },
    {
      "inputs": [],
      "name": "getSummary",
      "outputs": [
        {
          "internalType": "string",
          "name": "_name",
          "type": "string"
        },
        {
          "internalType": "address",
          "name": "_buyInToken",
          "type": "address"
        },
        {
          "internalType": "uint256",
          "name": "_buyInAmount",
          "type": "uint256"
        },
        {
          "internalType": "uint256",
          "name": "_teamCap",
          "type": "uint256"
        },
        {
          "internalType": "uint256",
          "name": "_teamsFilled",
          "type": "uint256"
        },
        {
          "internalType": "bool",
          "name": "_requiresPassword",
          "type": "bool"
        },
        {
          "internalType": "address",
          "name": "_commissioner",
          "type": "address"
        }
      ],
      "stateMutability": "view",
      "type": "function"
    },
    {
      "inputs": [
        {
          "internalType": "address",
          "name": "user",
          "type": "address"
        }
      ],
      "name": "getTeamByAddress",
      "outputs": [
        {
          "internalType": "string",
          "name": "teamName",
          "type": "string"
        }
      ],
      "stateMutability": "view",
      "type": "function"
    },
    {
      "inputs": [
        {
          "internalType": "address",
          "name": "owner",
          "type": "address"
        }
      ],
      "name": "getTeamProfile",
      "outputs": [
        {
          "internalType": "string",
          "name": "",
          "type": "string"
        },
        {
          "internalType": "string",
          "name": "",
          "type": "string"
        },
        {
          "internalType": "uint64",
          "name": "",
          "type": "uint64"
        }
      ],
      "stateMutability": "view",
      "type": "function"
    },
    {
      "inputs": [],
      "name": "getTeams",
      "outputs": [
        {
          "components": [
            {
              "internalType": "address",
              "name": "owner",
              "type": "address"
            },
            {
              "internalType": "string",
              "name": "name",
              "type": "string"
            }
          ],
          "internalType": "struct League.Team[]",
          "name": "",
          "type": "tuple[]"
        }
      ],
      "stateMutability": "view",
      "type": "function"
    },
    {
      "inputs": [
        {
          "internalType": "address",
          "name": "user",
          "type": "address"
        }
      ],
      "name": "hasPaid",
      "outputs": [
        {
          "internalType": "bool",
          "name": "",
          "type": "bool"
        }
      ],
      "stateMutability": "view",
      "type": "function"
    },
    {
      "inputs": [
        {
          "internalType": "address",
          "name": "_commissioner",
          "type": "address"
        },
        {
          "internalType": "string",
          "name": "_name",
          "type": "string"
        },
        {
          "internalType": "address",
          "name": "_buyInToken",
          "type": "address"
        },
        {
          "internalType": "uint256",
          "name": "_buyInAmount",
          "type": "uint256"
        },
        {
          "internalType": "uint256",
          "name": "_teamCount",
          "type": "uint256"
        }
      ],
      "name": "initialize",
      "outputs": [],
      "stateMutability": "nonpayable",
      "type": "function"
    },
    {
      "inputs": [
        {
          "internalType": "address",
          "name": "user",
          "type": "address"
        }
      ],
      "name": "isMember",
      "outputs": [
        {
          "internalType": "bool",
          "name": "",
          "type": "bool"
        }
      ],
      "stateMutability": "view",
      "type": "function"
    },
    {
      "inputs": [
        {
          "internalType": "string",
          "name": "_teamName",
          "type": "string"
        },
        {
          "internalType": "string",
          "name": "password",
          "type": "string"
        }
      ],
      "name": "joinLeague",
      "outputs": [],
      "stateMutability": "payable",
      "type": "function"
    },
    {
      "inputs": [
        {
          "internalType": "string",
          "name": "_teamName",
          "type": "string"
        },
        {
          "internalType": "uint256",
          "name": "deadline",
          "type": "uint256"
        },
        {
          "internalType": "bytes",
          "name": "sig",
          "type": "bytes"
        }
      ],
      "name": "joinLeagueWithSig",
      "outputs": [],
      "stateMutability": "payable",
      "type": "function"
    },
    {
      "inputs": [],
      "name": "joinPasswordHash",
      "outputs": [
        {
          "internalType": "bytes32",
          "name": "",
          "type": "bytes32"
        }
      ],
      "stateMutability": "view",
      "type": "function"
    },
    {
      "inputs": [],
      "name": "joinSigner",
      "outputs": [
        {
          "internalType": "address",
          "name": "",
          "type": "address"
        }
      ],
      "stateMutability": "view",
      "type": "function"
    },
    {
      "inputs": [
        {
          "internalType": "uint256",
          "name": "",
          "type": "uint256"
        }
      ],
      "name": "manualDraftOrder",
      "outputs": [
        {
          "internalType": "address",
          "name": "",
          "type": "address"
        }
      ],
      "stateMutability": "view",
      "type": "function"
    },
    {
      "inputs": [],
      "name": "name",
      "outputs": [
        {
          "internalType": "string",
          "name": "",
          "type": "string"
        }
      ],
      "stateMutability": "view",
      "type": "function"
    },
    {
      "inputs": [
        {
          "internalType": "address",
          "name": "user",
          "type": "address"
        }
      ],
      "name": "outstandingOf",
      "outputs": [
        {
          "internalType": "uint256",
          "name": "",
          "type": "uint256"
        }
      ],
      "stateMutability": "view",
      "type": "function"
    },
    {
      "inputs": [
        {
          "internalType": "address",
          "name": "",
          "type": "address"
        }
      ],
      "name": "paid",
      "outputs": [
        {
          "internalType": "uint256",
          "name": "",
          "type": "uint256"
        }
      ],
      "stateMutability": "view",
      "type": "function"
    },
    {
      "inputs": [],
      "name": "payBuyIn",
      "outputs": [],
      "stateMutability": "payable",
      "type": "function"
    },
    {
      "inputs": [],
      "name": "requiresPassword",
      "outputs": [
        {
          "internalType": "bool",
          "name": "",
          "type": "bool"
        }
      ],
      "stateMutability": "view",
      "type": "function"
    },
    {
      "inputs": [
        {
          "internalType": "uint32",
          "name": "_timePerPickSeconds",
          "type": "uint32"
        },
        {
          "internalType": "bool",
          "name": "_thirdRoundReversal",
          "type": "bool"
        },
        {
          "internalType": "uint32",
          "name": "_salaryCapBudget",
          "type": "uint32"
        },
        {
          "internalType": "uint8",
          "name": "_playerPool",
          "type": "uint8"
        }
      ],
      "name": "setDraftExtras",
      "outputs": [],
      "stateMutability": "nonpayable",
      "type": "function"
    },
    {
      "inputs": [
        {
          "internalType": "enum League.DraftType",
          "name": "_draftType",
          "type": "uint8"
        },
        {
          "internalType": "uint64",
          "name": "_draftTimestamp",
          "type": "uint64"
        },
        {
          "internalType": "enum League.OrderMode",
          "name": "_orderMode",
          "type": "uint8"
        },
        {
          "internalType": "address[]",
          "name": "_manualOrder",
          "type": "address[]"
        },
        {
          "internalType": "bool",
          "name": "_draftCompleted",
          "type": "bool"
        },
        {
          "internalType": "bool",
          "name": "_draftPickTradingEnabled",
          "type": "bool"
        }
      ],
      "name": "setDraftSettings",
      "outputs": [],
      "stateMutability": "nonpayable",
      "type": "function"
    },
    {
      "inputs": [
        {
          "internalType": "bytes32",
          "name": "passwordHash",
          "type": "bytes32"
        }
      ],
      "name": "setJoinPassword",
      "outputs": [],
      "stateMutability": "nonpayable",
      "type": "function"
    },
    {
      "inputs": [
        {
          "internalType": "address",
          "name": "signer",
          "type": "address"
        }
      ],
      "name": "setJoinSigner",
      "outputs": [],
      "stateMutability": "nonpayable",
      "type": "function"
    },
    {
      "inputs": [
        {
          "components": [
            {
              "internalType": "string",
              "name": "leagueName",
              "type": "string"
            },
            {
              "internalType": "string",
              "name": "leagueLogo",
              "type": "string"
            },
            {
              "internalType": "uint8",
              "name": "numberOfTeams",
              "type": "uint8"
            },
            {
              "internalType": "uint8",
              "name": "waiverType",
              "type": "uint8"
            },
            {
              "internalType": "uint64",
              "name": "waiverBudget",
              "type": "uint64"
            },
            {
              "internalType": "uint64",
              "name": "waiverMinBid",
              "type": "uint64"
            },
            {
              "internalType": "uint8",
              "name": "waiverClearance",
              "type": "uint8"
            },
            {
              "internalType": "uint8",
              "name": "waiversAfterDropDays",
              "type": "uint8"
            },
            {
              "internalType": "uint8",
              "name": "tradeReviewDays",
              "type": "uint8"
            },
            {
              "internalType": "uint8",
              "name": "tradeDeadlineWeek",
              "type": "uint8"
            },
            {
              "internalType": "uint8",
              "name": "leagueType",
              "type": "uint8"
            },
            {
              "internalType": "bool",
              "name": "extraGameVsMedian",
              "type": "bool"
            },
            {
              "internalType": "bool",
              "name": "preventDropAfterKickoff",
              "type": "bool"
            },
            {
              "internalType": "bool",
              "name": "lockAllMoves",
              "type": "bool"
            }
          ],
          "internalType": "struct League.LeagueSettings",
          "name": "s",
          "type": "tuple"
        }
      ],
      "name": "setLeagueSettings",
      "outputs": [],
      "stateMutability": "nonpayable",
      "type": "function"
    },
    {
      "inputs": [
        {
          "components": [
            {
              "internalType": "uint8",
              "name": "qb",
              "type": "uint8"
            },
            {
              "internalType": "uint8",
              "name": "rb",
              "type": "uint8"
            },
            {
              "internalType": "uint8",
              "name": "wr",
              "type": "uint8"
            },
            {
              "internalType": "uint8",
              "name": "te",
              "type": "uint8"
            },
            {
              "internalType": "uint8",
              "name": "flexWRT",
              "type": "uint8"
            },
            {
              "internalType": "uint8",
              "name": "flexWR",
              "type": "uint8"
            },
            {
              "internalType": "uint8",
              "name": "flexWT",
              "type": "uint8"
            },
            {
              "internalType": "uint8",
              "name": "superFlexQWRT",
              "type": "uint8"
            },
            {
              "internalType": "uint8",
              "name": "idpFlex",
              "type": "uint8"
            },
            {
              "internalType": "uint8",
              "name": "k",
              "type": "uint8"
            },
            {
              "internalType": "uint8",
              "name": "dst",
              "type": "uint8"
            },
            {
              "internalType": "uint8",
              "name": "dl",
              "type": "uint8"
            },
            {
              "internalType": "uint8",
              "name": "lb",
              "type": "uint8"
            },
            {
              "internalType": "uint8",
              "name": "db",
              "type": "uint8"
            },
            {
              "internalType": "uint8",
              "name": "bench",
              "type": "uint8"
            },
            {
              "internalType": "uint8",
              "name": "ir",
              "type": "uint8"
            }
          ],
          "internalType": "struct League.RosterSettings",
          "name": "s",
          "type": "tuple"
        }
      ],
      "name": "setRosterSettings",
      "outputs": [],
      "stateMutability": "nonpayable",
      "type": "function"
    },
    {
      "inputs": [
        {
          "internalType": "string",
          "name": "newName",
          "type": "string"
        }
      ],
      "name": "setTeamName",
      "outputs": [],
      "stateMutability": "nonpayable",
      "type": "function"
    },
    {
      "inputs": [
        {
          "internalType": "string",
          "name": "newName",
          "type": "string"
        },
        {
          "internalType": "string",
          "name": "newLogoURI",
          "type": "string"
        }
      ],
      "name": "setTeamProfile",
      "outputs": [],
      "stateMutability": "nonpayable",
      "type": "function"
    },
    {
      "inputs": [],
      "name": "teamCap",
      "outputs": [
        {
          "internalType": "uint256",
          "name": "",
          "type": "uint256"
        }
      ],
      "stateMutability": "view",
      "type": "function"
    },
    {
      "inputs": [
        {
          "internalType": "address",
          "name": "",
          "type": "address"
        }
      ],
      "name": "teamIndex",
      "outputs": [
        {
          "internalType": "uint256",
          "name": "",
          "type": "uint256"
        }
      ],
      "stateMutability": "view",
      "type": "function"
    },
    {
      "inputs": [
        {
          "internalType": "uint256",
          "name": "",
          "type": "uint256"
        }
      ],
      "name": "teamList",
      "outputs": [
        {
          "internalType": "address",
          "name": "owner",
          "type": "address"
        },
        {
          "internalType": "string",
          "name": "name",
          "type": "string"
        }
      ],
      "stateMutability": "view",
      "type": "function"
    },
    {
      "inputs": [
        {
          "internalType": "address",
          "name": "",
          "type": "address"
        }
      ],
      "name": "teams",
      "outputs": [
        {
          "internalType": "address",
          "name": "owner",
          "type": "address"
        },
        {
          "internalType": "string",
          "name": "name",
          "type": "string"
        }
      ],
      "stateMutability": "view",
      "type": "function"
    },
    {
      "inputs": [],
      "name": "teamsFilled",
      "outputs": [
        {
          "internalType": "uint256",
          "name": "",
          "type": "uint256"
        }
      ],
      "stateMutability": "view",
      "type": "function"
    },
    {
      "inputs": [],
      "name": "totalPaid",
      "outputs": [
        {
          "internalType": "uint256",
          "name": "",
          "type": "uint256"
        }
      ],
      "stateMutability": "view",
      "type": "function"
    },
    {
      "inputs": [
        {
          "internalType": "address",
          "name": "newCommissioner",
          "type": "address"
        }
      ],
      "name": "transferCommissioner",
      "outputs": [],
      "stateMutability": "nonpayable",
      "type": "function"
    },
    {
      "inputs": [],
      "name": "version",
      "outputs": [
        {
          "internalType": "uint16",
          "name": "",
          "type": "uint16"
        }
      ],
      "stateMutability": "pure",
      "type": "function"
    },
    {
      "inputs": [
        {
          "internalType": "address payable",
          "name": "to",
          "type": "address"
        },
        {
          "internalType": "uint256",
          "name": "amount",
          "type": "uint256"
        }
      ],
      "name": "withdrawNative",
      "outputs": [],
      "stateMutability": "nonpayable",
      "type": "function"
    },
    {
      "inputs": [
        {
          "internalType": "address",
          "name": "to",
          "type": "address"
        },
        {
          "internalType": "uint256",
          "name": "amount",
          "type": "uint256"
        }
      ],
      "name": "withdrawToken",
      "outputs": [],
      "stateMutability": "nonpayable",
      "type": "function"
    },
    {
      "stateMutability": "payable",
      "type": "receive"
    }
  ],
  "bytecode": "0x6080806040523460195760015f556156a6908161001e8239f35b5f80fdfe6080604052600436101561001a575b3615610018575f80fd5b005b5f3560e01c806301a682c11461422657806306fdde0314614203578063074882e414613daa57806307b18bde14613c4857806319aa69b914613bff5780631b52137614613bb45780632166e1bb14613b905780632d5e979b1461395f578063376d3394146139405780633e937961146138da578063400bbcfc146135325780634051ddac146134a757806347a29ac0146134005780634ea701a8146133a757806354fd4d501461338c578063604b9546146133235780636164fa2514612e4257806366ad03f714612e0a578063673851aa14612db4578063680f4c1d146123a85780636c83816c146123435780636d81779b1461232657806377a1875a14612300578063809da924146122de578063842ba9ce1461212f578063997076731461210957806399dc9233146120c85780639d9b55321461200a5780639e281a9814611f0d578063a230c52414611eca578063a340cf7914611e92578063a8c3063a1461189a578063af730af71461187d578063b995ac5b146114d4578063ba2b82c8146114b7578063c0680c0d14611258578063c149276a14610823578063c4583240146107c2578063c7be6f1c146106ff578063cf09e0d0146106e2578063d165dac2146106c5578063d69e83031461066b578063e18c1a98146105a5578063e6d43e4c1461057f578063e7495904146104fd578063e7b0f666146104e0578063ee81feb114610485578063f159dab9146103f2578063f1894498146103cc578063f4ec521e1461027f5763fbf47a9a0361000e573461027b57602036600319011261027b57602061027261026d614643565b614cc0565b15604051908152f35b5f80fd5b3461027b575f36600319011261027b576009546001600160401b0381116103b857604051906102b460208260051b01836145ab565b80825260208201908160095f527f6e1540171b6c0c960b71a7020d9f60077f6af931a8bbf590da0223dacf75c7af5f915b83831061036c57848660405191829160208301906020845251809152604083019060408160051b85010192915f905b82821061032357505050500390f35b9193600191939550602061035c8192603f198a82030186526040838a516001600160a01b038151168452015191818582015201906145cc565b9601920192018594939192610314565b6002602060019260405161037f81614559565b6001600160a01b0386541681526040516103a68161039f81898b016144a1565b03826145ab565b838201528152019201920191906102e5565b634e487b7160e01b5f52604160045260245ffd5b3461027b575f36600319011261027b5760206001600160a01b0360015416604051908152f35b3461027b575f36600319011261027b575f60606040516104118161453e565b828152826020820152826040820152015260806040516104308161453e565b60ff60135463ffffffff8082169384815260208101848460201c16151581528460606040840193858760281c168552019460481c16845260405195865251151560208601525116604084015251166060820152f35b3461027b575f36600319011261027b57608060105460ff80821691604051926104ad81614713565b83526001600160401b038160081c1660208401526104d360408401838360481c1661471d565b60501c1615156060820152f35b3461027b575f36600319011261027b576020600d54604051908152f35b3461027b57602036600319011261027b57610516614643565b6001546001600160a01b03808216926105308433146149e3565b16809261053e821515614a2f565b7fd9e4c6367fd51d0cc63bf2aa5afd9419618194468aa1187ad9643e569b03869b5f80a373ffffffffffffffffffffffffffffffffffffffff191617600155005b3461027b575f36600319011261027b5760206001600160a01b0360045416604051908152f35b3461027b57602036600319011261027b5761063d6105fb6001600160a01b036105cc614643565b16805f52600b60205260405f20906105e482546142c4565b156106555750610602815b604051938480926144a1565b03836145ab565b61064b60016106296001600160401b036002850154169361039f60405180948193016144a1565b6040519485946060865260608601906145cc565b9084820360208601526145cc565b9060408301520390f35b5f526008602052610602600160405f20016105ef565b3461027b57602036600319011261027b577f051ae5307d3be8e3ee1375c49f3d1a58649682f52b6dbc8b84902b7b2fbb59d760206004356106b86001600160a01b036001541633146149e3565b80600e55604051908152a1005b3461027b575f36600319011261027b576020600554604051908152f35b3461027b575f36600319011261027b576020600254604051908152f35b3461027b575f36600319011261027b5760105460ff81169060ff601254166040519061072e826105fb81614ada565b60ff6040519360c085019561074281614713565b85526001600160401b038160081c16602086015261076860408601838360481c1661471d565b60501c161515606084015260c060808401528151809452602060e0840192015f945b8086106107a1575050829350151560a08301520390f35b90926020806001926001600160a01b0387511681520194019501949061078a565b3461027b57602036600319011261027b576001600160a01b036107e3614643565b165f526008602052600160405f206108106001600160a01b03825416916105fb60405180958193016144a1565b61081f60405192839283614620565b0390f35b3461027b57602036600319011261027b576004356001600160401b03811161027b57806004016101c0600319833603011261027b5761086e6001600160a01b036001541633146149e3565b6108788180614e13565b90501561121357604482019160ff61088f84614e05565b161515806111fe575b156111ca5760ff6108a884614e05565b16600754116111855760e4810190600360ff6108c384614e05565b161161114057610104810193600360ff6108dc87614e05565b16116110fb5761012482019060ff6108f383614e05565b16611033575b6064830195600260ff61090b89614e05565b1611610ffd5760c4840192600360ff61092386614e05565b1611610fc857610144850191600260ff61093c85614e05565b1611610f925761094c8880614e13565b906001600160401b0382116103b85761096f8261096a6003546142c4565b614878565b5f90601f8311600114610f0f5761099d92915f9183610f04575b50508160011b915f199060031b1c19161790565b6003555b6109aa84614e05565b60ff166006556109ba8880614e13565b979098602488016109ca91614e13565b9690956109d690614e05565b9a6109e090614e05565b6109ec60848a01614e45565b906109f960a48b01614e45565b92610a0390614e05565b93610a0d90614e05565b94610a1790614e05565b95610a2190614e05565b96610a2b90614e05565b97610a396101648c01614e59565b99610a476101848d01614e59565b9b6101a401610a5590614e59565b9c6040519e8f91610a658361458f565b3690610a7092614674565b90523690610a7d92614674565b9c60208d019d8e5260ff1660408d015260ff1660608c01526001600160401b031660808b01526001600160401b031660a08a015260ff1660c089015260ff1660e088015260ff1661010087015260ff1661012086015260ff166101408501521515610160840152151561018083015215156101a082015280519182516001600160401b0381116103b857610b1b81610b166014546142c4565b6148bb565b6020601f8211600114610e83578190610b4a9394955f92610e785750508160011b915f199060031b1c19161790565b6014555b518051906001600160401b0382116103b857610b7482610b6f6015546142c4565b6148f3565b602090601f8311600114610ded578260ff937fb7f51a9aba7e5cf5ce953a60cee5a9fb50dda9eb796b2f57ceb57f561b3171f99593610bc7935f92610de25750508160011b915f199060031b1c19161790565b6015555b610be58260408301511660ff1660ff196016541617601655565b610c068260608301511661ff006016549160081b169061ff00191617601655565b6080810151906016549167ffffffffffffffff60501b60a083015160501b16908460901b60c084015160901b16938560981b60e085015160981b16948660a01b61010086015160a01b16918760a81b61012087015160a81b16908860b01b61014088015160b01b1693610160880151151560b81b966101a06101808a0151151560c01b990151151560c81b998b60c81b19978c60c01b19968d60b81b19958e60b01b19948f60a81b199360ff60a01b199260ff69ffffffffffffffff00009060981b199260101b169072ffffffffffffffffffffffffffffffffff000019161716171617161716171617161716908460b81b161780928460c81b16918460c01b1617179081601655604051928392602084526101c0602085015281610d42610d316101e0870161439b565b868103601f1901604088015261441e565b93165f176060850152818160081c1660808501526001600160401b038160101c1660a08501526001600160401b038160501c1660c0850152818160901c1660e0850152818160981c16610100850152818160a01c16610120850152818160a81c16610140850152818160b01c16610160850152818160b81c161515610180850152818160c01c1615156101a085015260c81c1615156101c08301520390a1005b015190508680610989565b9060155f52805f20915f5b601f1985168110610e605750927fb7f51a9aba7e5cf5ce953a60cee5a9fb50dda9eb796b2f57ceb57f561b3171f9949260019260ff9583601f19811610610e48575b505050811b01601555610bcb565b01515f1960f88460031b161c19169055858080610e3a565b91926020600181928685015181550194019201610df8565b015190508580610989565b601f1982169060145f527fce6d7b5282bd9a3661ae061feed1dbda4e52ab073b1f9285be6e155d9c38d4ec915f5b818110610eec57509583600195969710610ed4575b505050811b01601455610b4e565b01515f1960f88460031b161c19169055848080610ec6565b9192602060018192868b015181550194019201610eb1565b013590508c80610989565b601f1983169160035f527fc2575a0e9e593c00f959f8c92f12db2869c3395a3b0502d05e2516446f71f85b925f5b818110610f7a5750908460019594939210610f61575b505050811b016003556109a1565b01355f19600384901b60f8161c191690558b8080610f53565b91936020600181928787013581550195019201610f3d565b60405162461bcd60e51b815260206004820152600e60248201526d426164206c65616775655479706560901b6044820152606490fd5b60405162461bcd60e51b815260206004820152600d60248201526c42616420636c656172616e636560981b6044820152606490fd5b60405162461bcd60e51b815260206004820152600e60248201526d426164207761697665725479706560901b6044820152606490fd5b600960ff61104084614e05565b161480156110e6575b80156110d1575b80156110bc575b80156110a7575b6108f95760405162461bcd60e51b815260206004820152601360248201527f646561646c696e652030206f7220392e2e3133000000000000000000000000006044820152606490fd5b50600d60ff6110b584614e05565b161461105e565b50600c60ff6110ca84614e05565b1614611057565b50600b60ff6110df84614e05565b1614611050565b50600a60ff6110f484614e05565b1614611049565b60405162461bcd60e51b815260206004820152601460248201527f74726164655265766965774461797320302e2e330000000000000000000000006044820152606490fd5b60405162461bcd60e51b815260206004820152601960248201527f77616976657273416674657244726f704461797320302e2e33000000000000006044820152606490fd5b60405162461bcd60e51b815260206004820152601a60248201527f42656c6f772063757272656e742066696c6c6564207465616d730000000000006044820152606490fd5b60405162461bcd60e51b815260206004820152600c60248201526b5465616d7320312e2e32353560a01b6044820152606490fd5b5060ff8061120b85614e05565b161115610898565b60405162461bcd60e51b815260206004820152601460248201527f4c6561677565206e616d652072657175697265640000000000000000000000006044820152606490fd5b3461027b575f36600319011261027b576040516112748161458f565b606081526020810160609052604081015f9052606081015f9052608081015f905260a081015f905260c081015f905260e081015f905261010081015f905261012081015f905261014081015f905261016081015f905261018081015f90526101a0015f90526040516112e58161458f565b604051806112f28161439b565b036112fd90826145ab565b8152604051908161130d8161441e565b0361131890836145ab565b60208101918252601654604082019060ff81168252606083018160081c60ff168152608084018260101c6001600160401b0316815260a085018360501c6001600160401b0316815260c086018460901c60ff16815260e087018560981c60ff1681526101008801908660a01c60ff1682526101208901928760a81c60ff1684526101408a01948860b01c60ff1686526101608b01968960b81c60ff16151588526101808c01988a60c01c60ff1615158a526101a08d019a60c81c60ff1615158b52604051806113e6816142fc565b036113f190826145ab565b8d5260065460ff168c52604051809e819e6020835251602083016101c090526101e0830161141e916145cc565b9051828203601f1901604084015261143691906145cc565b9c5160ff1690606001525160ff1660808d0152516001600160401b031660a08c0152516001600160401b031660c08b01525160ff1660e08a01525160ff166101008901525160ff166101208801525160ff166101408701525160ff166101608601525115156101808501525115156101a08401525115156101c08301520390f35b3461027b575f36600319011261027b576020600e54604051908152f35b3461027b57602036600319011261027b576004356001600160401b03811161027b57611504903690600401614247565b335f5260086020526115246001600160a01b0360405f20541615156147ff565b801561184b576105fb90335f52600860205261154c600160405f2001604051938480926144a1565b335f526008602052600160405f20016001600160401b03821192836103b85761157f8361157984546142c4565b8461492b565b601f8311915f84600185146117e857806115ad925f91611766575b508160011b915f199060031b1c19161790565b90555b335f52600a60205260405f205480611703575b507f3f17542ff7d3f64632120e1ce858d3f574fb154d6e41d214c46de14f1b0da475604051806115f68689339684614970565b0390a2335f52600b60205260405f20926103b85761161e8261161885546142c4565b8561492b565b5f906001146116a257819061164893945f926116975750508160011b915f199060031b1c19161790565b81555b60028101805467ffffffffffffffff1916426001600160401b031690811790915560405133925f51602061567a5f395f51905f5292829161169291906001810190846149aa565b0390a2005b013590508480610989565b601f19821693835f5260205f20915f5b8681106116eb57508360019596106116d2575b505050811b01815561164b565b01355f19600384901b60f8161c191690558380806116c5565b909260206001819286860135815501940191016116b2565b9093505f1981019081116117d45761171c6001916145f0565b5001925f936117358461172f83546142c4565b8361492b565b5f8484600114611771578061175d925f9161176657508160011b915f199060031b1c19161790565b90555b856115c3565b90508801358961159a565b50601f19851690825f528560205f20925f5b8181106117b95750106117a0575b5050600184811b019055611760565b8701355f19600387901b60f8161c191690558680611791565b8a840135855560019094019360209384019389935001611783565b634e487b7160e01b5f52601160045260245ffd5b50601f19851690825f528560205f20925f5b818110611830575010611817575b5050600184811b0190556115b0565b8701355f19600387901b60f8161c191690558680611808565b8a8401358555600190940193602093840193899350016117fa565b60405162461bcd60e51b815260206004820152600a602482015269456d707479206e616d6560b01b6044820152606490fd5b3461027b575f36600319011261027b576020600754604051908152f35b3461027b5761020036600319011261027b576118c26001600160a01b036001541633146149e3565b600a60ff6118ce614cfd565b16111580611e7d575b80611e68575b80611e53575b15611e2257600a60ff6118f4614d3d565b16111580611e0d575b80611df8575b80611de3575b15611db157600a60ff61191a614d7d565b16111580611d9c575b80611d87575b15611d5557600a60ff61193a614db0565b16111580611d40575b80611d2b575b15611cfa57603260ff61195a614de3565b16111580611ce5575b15611caf5760ff611972614cfd565b1660ff1960175416176017556119a0611989614d0d565b61ff006017549160081b169061ff00191617601755565b6119c46119ab614d1d565b62ff00006017549160101b169062ff0000191617601755565b6119ea6119cf614d2d565b63ff0000006017549160181b169063ff000000191617601755565b611a126119f5614d3d565b64ff000000006017549160201b169064ff00000000191617601755565b611a3c611a1d614d4d565b65ff00000000006017549160281b169065ff0000000000191617601755565b611a68611a47614d5d565b66ff0000000000006017549160301b169066ff000000000000191617601755565b611a96611a73614d6d565b67ff000000000000006017549160381b169067ff00000000000000191617601755565b611ac6611aa1614d7d565b68ff00000000000000006017549160401b169068ff0000000000000000191617601755565b611aec611ad1614d8e565b60ff60481b6017549160481b169060ff60481b191617601755565b611b12611af7614d9f565b60ff60501b6017549160501b169060ff60501b191617601755565b611b38611b1d614db0565b60ff60581b6017549160581b169060ff60581b191617601755565b611b5e611b43614dc1565b60ff60601b6017549160601b169060ff60601b191617601755565b611b84611b69614dd2565b60ff60681b6017549160681b169060ff60681b191617601755565b611baa611b8f614de3565b60ff60701b6017549160701b169060ff60701b191617601755565b611bd0611bb5614df4565b60ff60781b6017549160781b169060ff60781b191617601755565b7f35d492d54286c7901d79d311540e983478de18494400ca1efb595e8ad3dbab0061020060405160ff6017548181168352818160081c166020840152818160101c166040840152818160181c166060840152818160201c166080840152818160281c1660a0840152818160301c1660c0840152818160381c1660e0840152818160401c16610100840152818160481c16610120840152818160501c16610140840152818160581c16610160840152818160601c16610180840152818160681c166101a0840152818160701c166101c084015260781c166101e0820152a1005b60405162461bcd60e51b815260206004820152600e60248201526d18995b98da0bda5c88189bdd5b9960921b6044820152606490fd5b50601960ff611cf2614df4565b161115611963565b60405162461bcd60e51b8152602060048201526009602482015268069647020302e2e31360bc1b6044820152606490fd5b50600a60ff611d38614dd2565b161115611949565b50600a60ff611d4d614dc1565b161115611943565b60405162461bcd60e51b815260206004820152600a60248201526906d69736320302e2e31360b41b6044820152606490fd5b50600a60ff611d94614d9f565b161115611929565b50600a60ff611da9614d8e565b161115611923565b60405162461bcd60e51b815260206004820152600a6024820152690666c657820302e2e31360b41b6044820152606490fd5b50600a60ff611df0614d6d565b161115611909565b50600a60ff611e05614d5d565b161115611903565b50600a60ff611e1a614d4d565b1611156118fd565b60405162461bcd60e51b81526020600482015260096024820152680706f7320302e2e31360bc1b6044820152606490fd5b50600a60ff611e60614d2d565b1611156118e3565b50600a60ff611e75614d1d565b1611156118dd565b50600a60ff611e8a614d0d565b1611156118d7565b3461027b57602036600319011261027b576001600160a01b03611eb3614643565b165f52600c602052602060405f2054604051908152f35b3461027b57602036600319011261027b576001600160a01b03611eeb614643565b165f52600860205260206001600160a01b0360405f2054161515604051908152f35b3461027b57604036600319011261027b57611f26614643565b602435611f3f6001600160a01b036001541633146149e3565b611f476151a0565b6001600160a01b0360045416918215611fd4577f525f755cf37e950a7b04b93cee8178d9d0b97d9ca82540787d26d5802f6046fc91611fc76001600160a01b036020931694611f97861515614a2f565b6040519063a9059cbb60e01b8583015286602483015283604483015260448252611fc26064836145ab565b6154ed565b604051908152a260015f55005b60405162461bcd60e51b815260206004820152600e60248201526d139bdd08115490cc8c081c1bdbdb60921b6044820152606490fd5b61209c61209661204461203f61201f366146aa565b9161202e9694969593956151a0565b612039368789614674565b336153ee565b614c74565b61204f81151561472a565b335f52600860205261206e6001600160a01b0360405f20541615614776565b61207d600754600654116147c2565b61208f61208933614cc0565b336151be565b3691614674565b33614ecf565b50337fa359c249f214449711a25d991dd32eb84d60bbef220ea6abc9c72c52eb44816e5f80a260015f55005b3461027b57602036600319011261027b5760043560115481101561027b576001600160a01b036120f96020926146fb565b90549060031b1c16604051908152f35b3461027b575f36600319011261027b5760206001600160a01b03600f5416604051908152f35b3461027b57608036600319011261027b5760043563ffffffff811680910361027b5760243580151580910361027b5760443563ffffffff81169182820361027b576064359260ff841680940361027b576121956001600160a01b036001541633146149e3565b600284116122a857620151808511612273576122179484606064ff0000000093604051906121c28261453e565b8482528660208301526040820152015268ffffffff00000000006013549460281b169368ffffffffffffffffff1916179160201b16171760135560ff60481b6013549160481b169060ff60481b191617601355565b7f774dd8e29ed97b4e44d5a0e862b0224c7a6e294dc3f2b0735f48215076c99776608060405160ff60135463ffffffff81168352818160201c161515602084015263ffffffff8160281c16604084015260481c166060820152a1005b60405162461bcd60e51b815260206004820152600d60248201526c74707020746f6f206c6172676560981b6044820152606490fd5b60405162461bcd60e51b815260206004820152600e60248201526d109859081c1b185e595c941bdbdb60921b6044820152606490fd5b3461027b575f36600319011261027b57602060ff601254166040519015158152f35b3461027b57602036600319011261027b57602061231e61026d614643565b604051908152f35b3461027b575f36600319011261027b576020600654604051908152f35b3461027b5761001861209661236f61203f61235d366146aa565b91612039969496959395368789614674565b61237a81151561472a565b335f5260086020526123996001600160a01b0360405f20541615614776565b61208f600754600654116147c2565b3461027b5760a036600319011261027b576123c1614643565b6024356001600160401b03811161027b573660238201121561027b576123f1903690602481600401359101614674565b90604435916001600160a01b03831680930361027b576084359160ff60185416612d6f576001600160a01b0316928315612d3757815115612d025782151580612cf7575b15612cb257836001600160a01b0319600154161760015581516001600160401b0381116103b85761246b8161096a6003546142c4565b6020601f8211600114612c32579080612497925f91612c2757508160011b915f199060031b1c19161790565b6003555b6001600160a01b0319600454161760045560643560055581600655426002556124f36040516124c981614559565b8481526124d4614b1c565b6020820152845f5260086020526124ee8160405f20614b46565b614c1c565b825f52600a602052600160405f2055600160075560405161251381614574565b61251b614b1c565b815260209360405161252d86826145ab565b5f815285830190815260408301916001600160401b03421683525f52600b865260405f2092518051906001600160401b0382116103b8576125788261257287546142c4565b8761492b565b8790601f8311600114612bc4576125a592915f9183612bb95750508160011b915f199060031b1c19161790565b83555b51805160018401916001600160401b0382116103b8576125cc8261161885546142c4565b8790601f8311600114612b495792612608836001600160401b0396939487956002975f92612b3e5750508160011b915f199060031b1c19161790565b90555b5116920191166001600160401b031982541617905560405161262c8161453e565b5f8152838101905f825260408101905f825260608101905f8252519161265183614713565b61265a83614713565b68ffffffffffffffff00601054945160081b169051926002841015612b2a5760ff60501b60ff60481b9351151560501b169460ff60ff60501b1992169069ffffffffffffffffffff19161716179160481b16171760105560ff19601254166012555f60606040516126ca8161453e565b603c81528581018390526101906040808301919091529101919091526013805469ffffffffffffffffffff1916660190000000003c179055519061270d8261458f565b815260405161271c84826145ab565b5f815283820190815260ff6040830193168352606082015f815260808301935f855260a084015f815260c08501925f845260e08601915f83526101008701975f89526101208801905f82526101408901935f85526101608a01965f88526101808b019960018b526101a08c019b5f8d525180516001600160401b0381116103b8578f6127ad82610b166014546142c4565b80601f8311600114612aa5575081906127da935f92612a275750508160011b915f199060031b1c19161790565b6014555b518051906001600160401b0382116103b8578e9061280183610b6f6015546142c4565b81601f8411600114612a32575060ff9361283a8461286997956128509588955f92612a275750508160011b915f199060031b1c19161790565b6015555b511660ff1660ff196016541617601655565b511661ff006016549160081b169061ff00191617601655565b51601680549351975195519a519251945196519851995160ff60c01b9a151560c01b9a909a1660ff60b81b99151560b81b999099167fffffffffffff000000000000000000000000000000000000000000000000ffff90941660109290921b69ffffffffffffffff0000169190911760509790971b67ffffffffffffffff60501b169690961760909490941b60ff60901b169390931760989890981b60ff60981b169790971760a09290921b60ff60a01b169190911760a89190911b60ff60a81b161760b09190911b60ff60b01b1617939093171790151560c81b60ff60c81b161790556040516001906101e09061296081614522565b8281526002848201819052604082015260608101839052608081018390525f60a0820181905260c0820181905260e08201819052610100820181905261012082018490526101408201849052610160820181905261018082018190526101a082015260056101c08201520152601780546f010500000001010000000000000000006fffffffffffffffffffffff00000000001964ffffffffff1990921660019485901b64ff000000001617630102020117919091161790556018805460ff19169091179055005b015190505f80610989565b9190601f19841660155f52835f20935f905b828210612a8d575050846128509460ff97939488956128699a9860019510612a75575b505050811b0160155561283e565b01515f1960f88460031b161c191690555f8080612a67565b80600186978294978701518155019601940190612a44565b9192601f19841660145f527fce6d7b5282bd9a3661ae061feed1dbda4e52ab073b1f9285be6e155d9c38d4ec935f905b828210612b12575050908460019594939210612afa575b505050811b016014556127de565b01515f1960f88460031b161c191690555f8080612aec565b80600186978294978701518155019601940190612ad5565b634e487b7160e01b5f52602160045260245ffd5b015190508c80610989565b90601f19831691845f52895f20925f5b8b828210612ba3575050936001600160401b03969360029693600193838a9810612b8b575b505050811b01905561260b565b01515f1960f88460031b161c191690558b8080612b7e565b6001859682939686015181550195019301612b59565b015190508980610989565b90601f19831691865f52895f20925f5b8b828210612c11575050908460019594939210612bf9575b505050811b0183556125a8565b01515f1960f88460031b161c19169055888080612bec565b6001859682939686015181550195019301612bd4565b90508401518761159a565b601f1982169060035f527fc2575a0e9e593c00f959f8c92f12db2869c3395a3b0502d05e2516446f71f85b915f5b818110612c9a57509083600194939210612c82575b5050811b0160035561249b565b8501515f1960f88460031b161c191690558680612c75565b9192602060018192868a015181550194019201612c60565b60405162461bcd60e51b815260206004820152601160248201527f5465616d20636f756e7420312e2e3235350000000000000000000000000000006044820152606490fd5b5060ff831115612435565b60405162461bcd60e51b815260206004820152600d60248201526c13985b59481c995c5d5a5c9959609a1b6044820152606490fd5b60405162461bcd60e51b815260206004820152601060248201526f2130b21031b7b6b6b4b9b9b4b7b732b960811b6044820152606490fd5b60405162461bcd60e51b815260206004820152601360248201527f416c726561647920696e697469616c697a6564000000000000000000000000006044820152606490fd5b3461027b575f36600319011261027b57612dda6001600160a01b036001541633146149e3565b5f600e557f051ae5307d3be8e3ee1375c49f3d1a58649682f52b6dbc8b84902b7b2fbb59d760206040515f8152a1005b3461027b57602036600319011261027b576001600160a01b03612e2b614643565b165f52600a602052602060405f2054604051908152f35b3461027b57606036600319011261027b57612e5b614643565b6024356001600160401b03811161027b57612e7a903690600401614247565b906044356001600160401b03811161027b57612ea26001600160a01b03913690600401614247565b919094612eb4826001541633146149e3565b1692835f526008602052612ed66001600160a01b0360405f20541615156147ff565b5f848152600b60205260409020928115613306576105fb90855f526008602052612f0c600160405f2001604051938480926144a1565b855f526008602052600160405f2001916001600160401b03841190816103b8578790612f3c8661257287546142c4565b601f861194865f6001881461329f579080612f6a925f9161322d57508160011b915f199060031b1c19161790565b90555b815f52600a60205260405f2054806131cd575b508381516020830120612f94368984614674565b6020815191012003613190575b5050506103b857612fb68361257287546142c4565b5f9160011461312c57612fdf92915f918361307e5750508160011b915f199060031b1c19161790565b82555b80156130fc5760018201906001600160401b0381116103b8576130098161157984546142c4565b5f601f8211600114613089579080613045925f51602061567a5f395f51905f5296975f9261307e5750508160011b915f199060031b1c19161790565b90555b60028101805467ffffffffffffffff1916426001600160401b0316908117909155604051918291611692916001810190846149aa565b013590508780610989565b601f19821690835f5260205f20915f5b8181106130e45750968392916001945f51602061567a5f395f51905f529899106130cb575b505050811b019055613048565b01355f19600384901b60f8161c191690558680806130be565b9192602060018192868c013581550194019201613099565b505f51602061567a5f395f51905f529192505f6001820161312661312082546142c4565b82614850565b55613048565b601f19831691855f5260205f20925f5b818110613178575090846001959493921061315f575b505050811b018255612fe2565b01355f19600384901b60f8161c19169055868080613152565b9193602060018192878701358155019501920161313c565b7f3f17542ff7d3f64632120e1ce858d3f574fb154d6e41d214c46de14f1b0da475916131c28860405193849384614970565b0390a2868983612fa1565b9092505f198101915081116117d45760016131e889926145f0565b5001915f926131fb8761172f83546142c4565b865f87600114613238579080613224925f9161322d57508160011b915f199060031b1c19161790565b90555b8a612f80565b90508701358e61159a565b5f8381526020812092508990601f198216905b818110613281575010613268575b5050600187811b019055613227565b8601355f1960038a901b60f8161c191690558b80613259565b8984013585558e97506001909401936020938401938c93500161324b565b5f8381526020812092508990601f198216905b8181106132e85750106132cf575b5050600187811b019055612f6d565b8601355f1960038a901b60f8161c191690558b806132c0565b8984013585558e97506001909401936020938401938c9350016132b2565b505061331b61331583546142c4565b83614850565b5f8255612fe2565b3461027b57602036600319011261027b576001600160a01b03613344614643565b613353826001541633146149e3565b16806001600160a01b0319600f541617600f557f9a10ceb19ce21f770334df3a59c1dc36aecc30f4bc6029dad8dc31a1b3deb79a5f80a2005b3461027b575f36600319011261027b57602060405160028152f35b3461027b57602036600319011261027b576001600160a01b036133c8614643565b165f52600860205261081f61039f6133ec600160405f2001604051928380926144a1565b6040519182916020835260208301906145cc565b3461027b575f36600319011261027b576004546001600160a01b0316475f82613434575b6040809350519182526020820152f35b506020602492604051938480926370a0823160e01b82523060048301525afa801561349c575f90613469575b60409250613424565b506020823d602011613494575b81613483602093836145ab565b8101031261027b5760409151613460565b3d9150613476565b6040513d5f823e3d90fd5b3461027b575f36600319011261027b5761350f6001600160a01b036004541660055490600654600754600e541515906001600160a01b036001541692604051956134fb876134f4816142fc565b03886145ab565b60405197889760e0895260e08901906145cc565b95602088015260408701526060860152608085015260a084015260c08301520390f35b3461027b5760c036600319011261027b57600435600481101561027b57602435906001600160401b03821680920361027b57604435916002831092831561027b57606435926001600160401b03841161027b573660238501121561027b578360040135946001600160401b03861161027b573660248760051b8701011161027b576084359182151580930361027b5760a4359081151580920361027b576135e56001600160a01b036001541633146149e3565b600185036138c5576135f5614a99565b5f5b888110156137415760248160051b89010135906001600160a01b03821680920361027b57811561373857815f5260086020526001600160a01b0360405f205416156136f357815f52601960205260ff60405f2054166136ae57815f52601960205260405f20600160ff1982541617905560115491680100000000000000008310156103b85761368d8360018095016011556146fb565b6001600160a01b03829392549160031b92831b921b19161790555b016135f7565b60405162461bcd60e51b815260206004820152601360248201527f6f7264657220686173206475706c6963617465000000000000000000000000006044820152606490fd5b60405162461bcd60e51b815260206004820152601560248201527f6f726465722061646472206e6f74206d656d62657200000000000000000000006044820152606490fd5b600191506136a8565b5091939550919395505f5b60115481101561378b57806001600160a01b0361376a6001936146fb565b90549060031b1c165f52601960205260405f2060ff1981541690550161374c565b50909192935b6040519161379e8361453e565b6137a781614713565b825260208201958652604082019315612b2a57835260608101938452516137cd81614713565b6137d681614713565b68ffffffffffffffff00601054955160081b1692516002811015612b2a577f1595eddc77f54923a5d919c55dc199a37004a2ff072e45a46254220d54cc6e149560ff60481b60ff60501b9560ff9794889551151560501b9386891992169069ffffffffffffffffffff1916171617958692169260481b16171780601055818019601254169316809317601255604051948594165f1761387481614713565b84526001600160401b038160081c16602085015261389a60408501838360481c1661471d565b60501c161515606083015260c060808301526138b860c08301614ada565b90151560a08301520390a1005b92955092909395506138d5614a99565b613791565b5f36600319011261027b576138ed6151a0565b6138f633614cc0565b801561390c5761390690336151be565b60015f55005b60405162461bcd60e51b815260206004820152600c60248201526b105b1c9958591e481c185a5960a21b6044820152606490fd5b3461027b575f36600319011261027b576020600e541515604051908152f35b3461027b575f36600319011261027b5760405161397b81614522565b5f8152602081015f9052604081015f9052606081015f9052608081015f905260a081015f905260c081015f905260e081015f905261010081015f905261012081015f905261014081015f905261016081015f905261018081015f90526101a081015f90526101c081015f90526101e0015f90526040516139fa81614522565b6017549060ff821691828252602082018160081c60ff168152604083018260101c60ff168152606084018360181c60ff16815260808501918460201c60ff16835260a08601938560281c60ff16855260c08701958060301c60ff1687528060381c60ff1660e08901528060401c60ff166101008901528060481c60ff166101208901528060501c60ff166101408901528060581c60ff166101608901528060601c60ff166101808901528060681c60ff166101a08901528060701c60ff166101c089015260781c60ff166101e08801526040519788525160ff1660208801525160ff1660408701525160ff1660608601525160ff1660808501525160ff1660a08401525160ff1660c083015260e081015160ff1660e083015261010081015160ff1661010083015261012081015160ff1661012083015261014081015160ff1661014083015261016081015160ff1661016083015261018081015160ff166101808301526101a081015160ff166101a08301526101c081015160ff166101c08301526101e0015160ff166101e082015261020090f35b61209c612096612044613ba236614274565b90613baf949293946151a0565b614e66565b3461027b575f36600319011261027b57608060135460ff6040519163ffffffff81168352818160201c161515602084015263ffffffff8160281c16604084015260481c166060820152f35b3461027b57602036600319011261027b5760043560095481101561027b57613c286001916145f0565b506108106001600160a01b03825416916105fb60405180958193016144a1565b3461027b57604036600319011261027b576004356001600160a01b03811680910361027b57602435613c866001600160a01b036001541633146149e3565b613c8e6151a0565b6001600160a01b0360045416613d7357613ca9821515614a2f565b478111613d2e575f80808084865af1613cc0614a6a565b5015613cf75760207fc4825c2033e49b7d8db9d453f0a5953dc550c9452166b576df9f456893f1695f91604051908152a260015f55005b60405162461bcd60e51b815260206004820152600f60248201526e15da5d1a191c985dc819985a5b1959608a1b6044820152606490fd5b60405162461bcd60e51b815260206004820152601460248201527f496e73756666696369656e742062616c616e63650000000000000000000000006044820152606490fd5b60405162461bcd60e51b815260206004820152600f60248201526e139bdd081b985d1a5d99481c1bdbdb608a1b6044820152606490fd5b3461027b57613db836614274565b919091335f526008602052613ddb6001600160a01b0360405f20541615156147ff565b335f908152600b602052604090209180156141e957335f52600860205261039f613e11600160405f2001604051928380926144a1565b335f526008602052600160405f2001906001600160401b03831190816103b857613e3f8461161885546142c4565b601f8411925f85600186146141855780613e6c925f9161411657508160011b915f199060031b1c19161790565b90555b335f52600a60205260405f2054806140b9575b5080516020820120613e9536868b614674565b602081519101200361407e575b506103b857613ebb82613eb586546142c4565b8661492b565b5f9060011461401b578190613ee7939495965f926140105750508160011b915f199060031b1c19161790565b82555b8015613ff55760018201906001600160401b0381116103b857613f118161157984546142c4565b5f601f8211600114613f93578190613f3f9394955f92613f885750508160011b915f199060031b1c19161790565b905560028101805467ffffffffffffffff1916426001600160401b031690811790915560405133925f51602061567a5f395f51905f5292829161169291906001810190846149aa565b013590508580610989565b601f19821694835f5260205f20915f5b878110613fdd575083600195969710613fc4575b505050811b01905561164b565b01355f19600384901b60f8161c19169055848080613fb7565b90926020600181928686013581550194019101613fa3565b5090505f6001820161400a61312082546142c4565b5561164b565b013590508680610989565b601f19821695845f5260205f20915f5b8881106140665750836001959697981061404d575b505050811b018255613eea565b01355f19600384901b60f8161c19169055858080614040565b9092602060018192868601358155019401910161402b565b7f3f17542ff7d3f64632120e1ce858d3f574fb154d6e41d214c46de14f1b0da475604051806140b0878c339684614970565b0390a287613ea2565b9091505f1981019081116117d4576140d26001916145f0565b5001905f916140e58561172f83546142c4565b5f8585600114614121578061410d925f9161411657508160011b915f199060031b1c19161790565b90555b88613e82565b90508b01358c61159a565b50601f19861690825f528660205f20925f5b8d82821061416b57505010614152575b5050600185811b019055614110565b8a01355f19600388901b60f8161c191690558980614143565b84013585556001909401936020938401938a935001614133565b50601f19861690825f528660205f20925f5b8d8282106141cf575050106141b6575b5050600185811b019055613e6f565b8a01355f19600388901b60f8161c1916905589806141a7565b84013585556001909401936020938401938a935001614197565b50909192506141fb61331583546142c4565b5f8255613eea565b3461027b575f36600319011261027b5761081f6040516133ec8161039f816142fc565b3461027b5761001861209661236f61423d36614274565b9093919293614e66565b9181601f8401121561027b578235916001600160401b03831161027b576020838186019501011161027b57565b604060031982011261027b576004356001600160401b03811161027b578161429e91600401614247565b92909291602435906001600160401b03821161027b576142c091600401614247565b9091565b90600182811c921680156142f2575b60208310146142de57565b634e487b7160e01b5f52602260045260245ffd5b91607f16916142d3565b6003545f929161430b826142c4565b808252916001811690811561437f5750600114614326575050565b60035f9081529293509091907fc2575a0e9e593c00f959f8c92f12db2869c3395a3b0502d05e2516446f71f85b5b838310614365575060209250010190565b600181602092949394548385870101520191019190614354565b9050602093945060ff929192191683830152151560051b010190565b6014545f92916143aa826142c4565b808252916001811690811561437f57506001146143c5575050565b60145f9081529293509091907fce6d7b5282bd9a3661ae061feed1dbda4e52ab073b1f9285be6e155d9c38d4ec5b838310614404575060209250010190565b6001816020929493945483858701015201910191906143f3565b6015545f929161442d826142c4565b808252916001811690811561437f5750600114614448575050565b60155f9081529293509091907f55f448fdea98c4d29eb340757ef0a66cd03dbb9538908a6a81d96026b71ec4755b838310614487575060209250010190565b600181602092949394548385870101520191019190614476565b5f92918154916144b0836142c4565b808352926001811690811561450557506001146144cc57505050565b5f9081526020812093945091925b8383106144eb575060209250010190565b6001816020929493945483858701015201910191906144da565b915050602093945060ff929192191683830152151560051b010190565b61020081019081106001600160401b038211176103b857604052565b608081019081106001600160401b038211176103b857604052565b604081019081106001600160401b038211176103b857604052565b606081019081106001600160401b038211176103b857604052565b6101c081019081106001600160401b038211176103b857604052565b90601f801991011681019081106001600160401b038211176103b857604052565b805180835260209291819084018484015e5f828201840152601f01601f1916010190565b60095481101561460c5760095f5260205f209060011b01905f90565b634e487b7160e01b5f52603260045260245ffd5b6040906001600160a01b03614640949316815281602082015201906145cc565b90565b600435906001600160a01b038216820361027b57565b6001600160401b0381116103b857601f01601f191660200190565b92919261468082614659565b9161468e60405193846145ab565b82948184528183011161027b578281602093845f960137010152565b90606060031983011261027b576004356001600160401b03811161027b57826146d591600401614247565b9290929160243591604435906001600160401b03821161027b576142c091600401614247565b60115481101561460c5760115f5260205f2001905f90565b60041115612b2a57565b906002821015612b2a5752565b1561473157565b60405162461bcd60e51b815260206004820152601260248201527f5465616d206e616d6520726571756972656400000000000000000000000000006044820152606490fd5b1561477d57565b60405162461bcd60e51b815260206004820152601360248201527f5465616d20616c726561647920657869737473000000000000000000000000006044820152606490fd5b156147c957565b60405162461bcd60e51b815260206004820152600e60248201526d13195859dd59481a5cc8199d5b1b60921b6044820152606490fd5b1561480657565b60405162461bcd60e51b815260206004820152600c60248201526b2737ba10309036b2b6b132b960a11b6044820152606490fd5b818110614845575050565b5f815560010161483a565b90601f811161485d575050565b614876915f52601f60205f20910160051c81019061483a565b565b90601f8211614885575050565b6148769160035f5260205f20906020601f840160051c830193106148b1575b601f0160051c019061483a565b90915081906148a4565b90601f82116148c8575050565b6148769160145f5260205f20906020601f840160051c830193106148b157601f0160051c019061483a565b90601f8211614900575050565b6148769160155f5260205f20906020601f840160051c830193106148b157601f0160051c019061483a565b9190601f811161493a57505050565b614876925f5260205f20906020601f840160051c830193106148b157601f0160051c019061483a565b919082039182116117d457565b919260209361498882936040865260408601906145cc565b9385818603910152818452848401375f828201840152601f01601f1916010190565b916149dc6001600160401b03916149ce6040949796976060875260608701906144a1565b9085820360208701526144a1565b9416910152565b156149ea57565b60405162461bcd60e51b815260206004820152601160248201527f4f6e6c7920636f6d6d697373696f6e65720000000000000000000000000000006044820152606490fd5b15614a3657565b60405162461bcd60e51b815260206004820152600c60248201526b5a65726f206164647265737360a01b6044820152606490fd5b3d15614a94573d90614a7b82614659565b91614a8960405193846145ab565b82523d5f602084013e565b606090565b6011545f60115580614aa85750565b60115f52614876907f31ecc21a745e3968a04e9570e4425bc18fa8019c68028196b546d1669c200c689081019061483a565b602060115491828152019060115f5260205f20905f5b818110614afd5750505090565b82546001600160a01b0316845260209093019260019283019201614af0565b60405190614b2b6040836145ab565b600c82526b21b7b6b6b4b9b9b4b7b732b960a11b6020830152565b60016020919392936001600160a01b038551166001600160a01b0319825416178155019201519182516001600160401b0381116103b857614b8b8161157984546142c4565b6020601f8211600114614bbe578190614bba9394955f92612a275750508160011b915f199060031b1c19161790565b9055565b601f19821690835f52805f20915f5b818110614c0457509583600195969710614bec575b505050811b019055565b01515f1960f88460031b161c191690555f8080614be2565b9192602060018192868b015181550194019201614bcd565b600954680100000000000000008110156103b8576001810160095560095481101561460c5760095f5260011b7f6e1540171b6c0c960b71a7020d9f60077f6af931a8bbf590da0223dacf75c7af019061487691614b46565b15614c7b57565b60405162461bcd60e51b815260206004820152601260248201527f426164206a6f696e207369676e617475726500000000000000000000000000006044820152606490fd5b600554908115614cf7576001600160a01b03165f908152600c6020526040902054818110614cee5750505f90565b61464091614963565b50505f90565b60043560ff8116810361027b5790565b60243560ff8116810361027b5790565b60443560ff8116810361027b5790565b60643560ff8116810361027b5790565b60843560ff8116810361027b5790565b60a43560ff8116810361027b5790565b60c43560ff8116810361027b5790565b60e43560ff8116810361027b5790565b6101043560ff8116810361027b5790565b6101243560ff8116810361027b5790565b6101443560ff8116810361027b5790565b6101643560ff8116810361027b5790565b6101843560ff8116810361027b5790565b6101a43560ff8116810361027b5790565b6101c43560ff8116810361027b5790565b6101e43560ff8116810361027b5790565b3560ff8116810361027b5790565b903590601e198136030182121561027b57018035906001600160401b03821161027b5760200191813603831361027b57565b356001600160401b038116810361027b5790565b35801515810361027b5790565b90600e549182614e7557505050565b614e80913691614674565b6020815191012003614e8e57565b60405162461bcd60e51b815260206004820152600c60248201526b109859081c185cdcdddbdc9960a21b6044820152606490fd5b919082018092116117d457565b9091614f096001600160a01b0360405193614ee985614559565b1692838152846020820152835f5260086020526124ee8160405f20614b46565b600954915f1983018381116117d4578093825f52600a60205260405f2055600754600181018091116117d457600755817f70f6a783feebd5a50b1c5a7108567bb6a864f051e3ce5ffc3157b5244886daea6040516020815280614f6f602082018a6145cc565b0390a360405193426001600160401b0316614f8986614574565b81865260209060405196614f9d83896145ab565b5f885282810197885260408101828152855f52600b845260405f2091518051906001600160401b0382116103b857614fd982613eb586546142c4565b8590601f831160011461513d5761500692915f9183612a275750508160011b915f199060031b1c19161790565b82555b6001820198519889516001600160401b0381116103b85761502e8161157984546142c4565b859a601f82116001146150be579260029261507b836001600160401b0396945f51602061567a5f395f51905f529c9d9e9f88965f92612a275750508160011b915f199060031b1c19161790565b90555b5116920191166001600160401b03198254161790556150a8604051936060855260608501906145cc565b905f8483039283858701525260408401520190a2565b601f19821690835f52875f20915f5b8181106151265750836001600160401b0396935f51602061567a5f395f51905f529c9d9e9f6002979489976001951061510e575b505050811b01905561507e565b01515f1960f88460031b161c191690555f8080615101565b828f015184559d89019d60019093019289016150cd565b90601f19831691855f52875f20925f5b8982821061518a575050908460019594939210615172575b505050811b018255615009565b01515f1960f88460031b161c191690555f8080615165565b600185968293968601518155019501930161514d565b60025f54146151af5760025f55565b633ee5aeb560e01b5f5260045ffd5b906001600160a01b036004541680155f146152f657508034106152b157806151eb9161524b575b34614963565b90816151f5575050565b5f8080936001600160a01b038294165af161520e614a6a565b501561521657565b60405162461bcd60e51b815260206004820152600d60248201526c1499599d5b990819985a5b1959609a1b6044820152606490fd5b6001600160a01b038316805f52600c60205260405f2061526c838254614ec2565b905561527a82600d54614ec2565b600d557f12e0116389566f1f90ea60b4c48731a5301b1a78cd0ada2a7e58d0636e39856a604080518481525f6020820152a26151e5565b60405162461bcd60e51b815260206004820152601a60248201527f496e73756666696369656e74206e617469766520616d6f756e740000000000006044820152606490fd5b91346153a9578161530657505050565b7f12e0116389566f1f90ea60b4c48731a5301b1a78cd0ada2a7e58d0636e39856a916153696040926001600160a01b038451916323b872dd60e01b6020840152169586602483015230604483015283606483015260648252611fc26084836145ab565b835f52600c602052815f2061537f828254614ec2565b905561538d81600d54614ec2565b600d556001600160a01b036004541682519182526020820152a2565b60405162461bcd60e51b815260206004820152601b60248201527f4e6f206e61746976652077697468204552433230206275792d696e00000000006044820152606490fd5b9190936001600160a01b03600f54169485156154e25782421161549d576001600160a01b03946154989461548f9483602061548995519101209060405191896020840194308652166040840152606083015260808201526080815261545460a0826145ab565b5190207f19457468657265756d205369676e6564204d6573736167653a0a3332000000005f52601c52603c5f20923691614674565b90615541565b9092919261557b565b161490565b60405162461bcd60e51b815260206004820152601360248201527f4a6f696e207065726d69742065787069726564000000000000000000000000006044820152606490fd5b505050505050600190565b905f602091828151910182855af11561349c575f513d61553857506001600160a01b0381163b155b61551c5750565b6001600160a01b0390635274afe760e01b5f521660045260245ffd5b60011415615515565b81519190604183036155715761556a9250602082015190606060408401519301515f1a906155f7565b9192909190565b50505f9160029190565b61558481614713565b8061558d575050565b61559681614713565b600181036155ad5763f645eedf60e01b5f5260045ffd5b6155b681614713565b600281036155d1575063fce698f760e01b5f5260045260245ffd5b6003906155dd81614713565b146155e55750565b6335e2f38360e21b5f5260045260245ffd5b91907f7fffffffffffffffffffffffffffffff5d576e7357a4501ddfe92f46681b20a0841161566e579160209360809260ff5f9560405194855216868401526040830152606082015282805260015afa1561349c575f516001600160a01b0381161561566457905f905f90565b505f906001905f90565b5050505f916003919056fe1d845006d4ad8621734f8decee2f5bb5e38722bc963098b9cc0ac4274efecec1a164736f6c634300081c000a",
  "linkReferences": {},
  "deployedLinkReferences": {},
  "immutableReferences": {},
  "inputSourceName": "project/contracts/League.sol",
  "buildInfoId": "solc-0_8_28-d682dd0b66e7cd506a01a7f7c0ae710134af62c5"
}