{
  "_format": "hh3-artifact-1",
  "contractName": "LeagueFactory",
  "sourceName": "contracts/LeagueFactory.sol",
  "abi": [
    {
      "inputs": [
        {
          "internalType": "address",
          "name": "_implementation",
          "type": "address"
        }
      ],
      "stateMutability": "nonpayable",
      "type": "constructor"
    },
    {
      "inputs": [],
      "name": "FailedDeployment",
      "type": "error"
    },
    {
      "inputs": [
        {
          "internalType": "uint256",
          "name": "balance",
          "type": "uint256"
        },
        {
          "internalType": "uint256",
          "name": "needed",
          "type": "uint256"
        }
      ],
      "name": "InsufficientBalance",
      "type": "error"
    },
    {
      "inputs": [],
      "name": "NameRequired",
      "type": "error"
    },
    {
      "inputs": [],
      "name": "TeamCountOutOfRange",
      "type": "error"
    },
    {
      "inputs": [],
      "name": "TokenZero",
      "type": "error"
    },
    {
      "anonymous": false,
      "inputs": [
        {
          "indexed": true,
          "internalType": "address",
          "name": "impl",
          "type": "address"
        }
      ],
      "name": "ImplementationSet",
      "type": "event"
    },
    {
      "anonymous": false,
      "inputs": [
        {
          "indexed": true,
          "internalType": "address",
          "name": "leagueAddress",
          "type": "address"
        },
        {
          "indexed": true,
          "internalType": "address",
          "name": "creator",
          "type": "address"
        }
      ],
      "name": "LeagueCreated",
      "type": "event"
    },
    {
      "inputs": [
        {
          "internalType": "string",
          "name": "_name",
          "type": "string"
        },
        {
          "internalType": "uint256",
          "name": "_buyInAmount",
          "type": "uint256"
        },
        {
          "internalType": "uint256",
          "name": "_teamCount",
          "type": "uint256"
        }
      ],
      "name": "createLeague",
      "outputs": [
        {
          "internalType": "address",
          "name": "leagueAddr",
          "type": "address"
        }
      ],
      "stateMutability": "nonpayable",
      "type": "function"
    },
    {
      "inputs": [
        {
          "internalType": "string",
          "name": "_name",
          "type": "string"
        },
        {
          "internalType": "address",
          "name": "_token",
          "type": "address"
        },
        {
          "internalType": "uint256",
          "name": "_buyInAmount",
          "type": "uint256"
        },
        {
          "internalType": "uint256",
          "name": "_teamCount",
          "type": "uint256"
        }
      ],
      "name": "createLeagueERC20",
      "outputs": [
        {
          "internalType": "address",
          "name": "leagueAddr",
          "type": "address"
        }
      ],
      "stateMutability": "nonpayable",
      "type": "function"
    },
    {
      "inputs": [],
      "name": "getLeagues",
      "outputs": [
        {
          "internalType": "address[]",
          "name": "",
          "type": "address[]"
        }
      ],
      "stateMutability": "view",
      "type": "function"
    },
    {
      "inputs": [
        {
          "internalType": "address",
          "name": "c",
          "type": "address"
        }
      ],
      "name": "getLeaguesByCreator",
      "outputs": [
        {
          "internalType": "address[]",
          "name": "",
          "type": "address[]"
        }
      ],
      "stateMutability": "view",
      "type": "function"
    },
    {
      "inputs": [],
      "name": "implementation",
      "outputs": [
        {
          "internalType": "address",
          "name": "",
          "type": "address"
        }
      ],
      "stateMutability": "view",
      "type": "function"
    },
    {
      "inputs": [
        {
          "internalType": "uint256",
          "name": "",
          "type": "uint256"
        }
      ],
      "name": "leagues",
      "outputs": [
        {
          "internalType": "address",
          "name": "",
          "type": "address"
        }
      ],
      "stateMutability": "view",
      "type": "function"
    },
    {
      "inputs": [
        {
          "internalType": "address",
          "name": "",
          "type": "address"
        },
        {
          "internalType": "uint256",
          "name": "",
          "type": "uint256"
        }
      ],
      "name": "leaguesByCreator",
      "outputs": [
        {
          "internalType": "address",
          "name": "",
          "type": "address"
        }
      ],
      "stateMutability": "view",
      "type": "function"
    },
    {
      "inputs": [],
      "name": "leaguesCount",
      "outputs": [
        {
          "internalType": "uint256",
          "name": "",
          "type": "uint256"
        }
      ],
      "stateMutability": "view",
      "type": "function"
    },
    {
      "inputs": [
        {
          "internalType": "address",
          "name": "c",
          "type": "address"
        }
      ],
      "name": "leaguesCountByCreator",
      "outputs": [
        {
          "internalType": "uint256",
          "name": "",
          "type": "uint256"
        }
      ],
      "stateMutability": "view",
      "type": "function"
    }
  ],
  "bytecode": "0x60a060405234801561000f575f5ffd5b506040516109ab3803806109ab83398101604081905261002e916100b0565b6001600160a01b0381166100735760405162461bcd60e51b8152602060048201526008602482015267109859081a5b5c1b60c21b604482015260640160405180910390fd5b6001600160a01b03811660808190526040517fab64f92ab780ecbf4f3866f57cee465ff36c89450dcce20237ca7a8d81fb7d13905f90a2506100dd565b5f602082840312156100c0575f5ffd5b81516001600160a01b03811681146100d6575f5ffd5b9392505050565b6080516108a96101025f395f818160de015281816101f001526103ae01526108a95ff3fe608060405234801561000f575f5ffd5b5060043610610081575f3560e01c806303ca120e14610085578063336b5a65146100b55780634608f4ac146100c65780635c60da1b146100d95780639375d295146101005780639875949614610128578063c648fefe1461013b578063dec7db5f1461014e578063f47dafcb14610163575b5f5ffd5b6100986100933660046106e6565b610176565b6040516001600160a01b0390911681526020015b60405180910390f35b5f545b6040519081526020016100ac565b6100986100d4366004610747565b610327565b6100987f000000000000000000000000000000000000000000000000000000000000000081565b6100b861010e36600461076f565b6001600160a01b03165f9081526001602052604090205490565b61009861013636600461078f565b61035b565b6100986101493660046107dc565b6104e4565b61015661050b565b6040516100ac91906107f3565b61015661017136600461076f565b61056a565b5f84810361019757604051636cc61e7360e11b815260040160405180910390fd5b5f821180156101a7575060ff8211155b6101c457604051637511865d60e11b815260040160405180910390fd5b6001600160a01b0384166101eb5760405163ab42242d60e01b815260040160405180910390fd5b61021d7f00000000000000000000000000000000000000000000000000000000000000006001600160a01b03166105dd565b60405163680f4c1d60e01b81529091506001600160a01b0382169063680f4c1d906102569033908a908a908a908a908a9060040161083e565b5f604051808303815f87803b15801561026d575f5ffd5b505af115801561027f573d5f5f3e3d5ffd5b50505f8054600181810183557f290decd9548b62a8d60345a988386fc84ba6bc95484008f6362f93160ef3e56390910180546001600160a01b0387166001600160a01b03199182168117909255338085526020848152604080872080549687018155875290862090940180549092168317909155915191945092507fc66de6f527b6ed83abec169eea6623208c36eb7c7fe0ed24c6d0d5d6bbed58f99190a395945050505050565b6001602052815f5260405f208181548110610340575f80fd5b5f918252602090912001546001600160a01b03169150829050565b5f83810361037c57604051636cc61e7360e11b815260040160405180910390fd5b5f8211801561038c575060ff8211155b6103a957604051637511865d60e11b815260040160405180910390fd5b6103db7f00000000000000000000000000000000000000000000000000000000000000006001600160a01b03166105dd565b60405163680f4c1d60e01b81529091506001600160a01b0382169063680f4c1d90610414903390899089905f908a908a9060040161083e565b5f604051808303815f87803b15801561042b575f5ffd5b505af115801561043d573d5f5f3e3d5ffd5b50505f8054600181810183557f290decd9548b62a8d60345a988386fc84ba6bc95484008f6362f93160ef3e56390910180546001600160a01b0387166001600160a01b03199182168117909255338085526020848152604080872080549687018155875290862090940180549092168317909155915191945092507fc66de6f527b6ed83abec169eea6623208c36eb7c7fe0ed24c6d0d5d6bbed58f99190a3949350505050565b5f81815481106104f2575f80fd5b5f918252602090912001546001600160a01b0316905081565b60605f80548060200260200160405190810160405280929190818152602001828054801561056057602002820191905f5260205f20905b81546001600160a01b03168152600190910190602001808311610542575b5050505050905090565b6001600160a01b0381165f908152600160209081526040918290208054835181840281018401909452808452606093928301828280156105d157602002820191905f5260205f20905b81546001600160a01b031681526001909101906020018083116105b3575b50505050509050919050565b5f6105e8825f6105ee565b92915050565b5f8147101561061d5760405163cf47918160e01b81524760048201526024810183905260440160405180910390fd5b763d602d80600a3d3981f3363d3d373d3d3d363d730000008360601b60e81c175f526e5af43d82803e903d91602b57fd5bf38360781b176020526037600983f090506001600160a01b0381166105e85760405163b06ebf3d60e01b815260040160405180910390fd5b5f5f83601f840112610696575f5ffd5b50813567ffffffffffffffff8111156106ad575f5ffd5b6020830191508360208285010111156106c4575f5ffd5b9250929050565b80356001600160a01b03811681146106e1575f5ffd5b919050565b5f5f5f5f5f608086880312156106fa575f5ffd5b853567ffffffffffffffff811115610710575f5ffd5b61071c88828901610686565b909650945061072f9050602087016106cb565b94979396509394604081013594506060013592915050565b5f5f60408385031215610758575f5ffd5b610761836106cb565b946020939093013593505050565b5f6020828403121561077f575f5ffd5b610788826106cb565b9392505050565b5f5f5f5f606085870312156107a2575f5ffd5b843567ffffffffffffffff8111156107b8575f5ffd5b6107c487828801610686565b90989097506020870135966040013595509350505050565b5f602082840312156107ec575f5ffd5b5035919050565b602080825282518282018190525f918401906040840190835b818110156108335783516001600160a01b031683526020938401939092019160010161080c565b509095945050505050565b6001600160a01b038716815260a0602082018190528101859052848660c08301375f60c08683018101919091526001600160a01b0394909416604082015260608101929092526080820152601f909201601f1916909101019291505056fea164736f6c634300081c000a",
  "linkReferences": {},
  "deployedLinkReferences": {},
  "immutableReferences": {
    "534": [
      {
        "length": 32,
        "start": 222
      },
      {
        "length": 32,
        "start": 496
      },
      {
        "length": 32,
        "start": 942
      }
    ]
  },
  "inputSourceName": "project/contracts/LeagueFactory.sol",
  "buildInfoId": "solc-0_8_28-fdf17e5c4bdf965d7fe748b8f134b31a327dbba9"
}