{
  "_format": "hh3-artifact-1",
  "contractName": "League",
  "sourceName": "contracts/League.sol",
  "abi": [
    {
      "inputs": [
        {
          "internalType": "address",
          "name": "_commissioner",
          "type": "address"
        },
        {
          "internalType": "string",
          "name": "_name",
          "type": "string"
        },
        {
          "internalType": "address",
          "name": "_buyInToken",
          "type": "address"
        },
        {
          "internalType": "uint256",
          "name": "_buyInAmount",
          "type": "uint256"
        },
        {
          "internalType": "uint256",
          "name": "_teamCount",
          "type": "uint256"
        }
      ],
      "stateMutability": "nonpayable",
      "type": "constructor"
    },
    {
      "inputs": [],
      "name": "ECDSAInvalidSignature",
      "type": "error"
    },
    {
      "inputs": [
        {
          "internalType": "uint256",
          "name": "length",
          "type": "uint256"
        }
      ],
      "name": "ECDSAInvalidSignatureLength",
      "type": "error"
    },
    {
      "inputs": [
        {
          "internalType": "bytes32",
          "name": "s",
          "type": "bytes32"
        }
      ],
      "name": "ECDSAInvalidSignatureS",
      "type": "error"
    },
    {
      "inputs": [],
      "name": "ReentrancyGuardReentrantCall",
      "type": "error"
    },
    {
      "inputs": [
        {
          "internalType": "address",
          "name": "token",
          "type": "address"
        }
      ],
      "name": "SafeERC20FailedOperation",
      "type": "error"
    },
    {
      "anonymous": false,
      "inputs": [
        {
          "indexed": true,
          "internalType": "address",
          "name": "payer",
          "type": "address"
        },
        {
          "indexed": false,
          "internalType": "uint256",
          "name": "amount",
          "type": "uint256"
        },
        {
          "indexed": false,
          "internalType": "address",
          "name": "token",
          "type": "address"
        }
      ],
      "name": "BuyInReceived",
      "type": "event"
    },
    {
      "anonymous": false,
      "inputs": [
        {
          "indexed": true,
          "internalType": "address",
          "name": "oldCommissioner",
          "type": "address"
        },
        {
          "indexed": true,
          "internalType": "address",
          "name": "newCommissioner",
          "type": "address"
        }
      ],
      "name": "CommissionerTransferred",
      "type": "event"
    },
    {
      "anonymous": false,
      "inputs": [
        {
          "components": [
            {
              "internalType": "enum League.DraftType",
              "name": "draftType",
              "type": "uint8"
            },
            {
              "internalType": "uint64",
              "name": "draftTimestamp",
              "type": "uint64"
            },
            {
              "internalType": "enum League.OrderMode",
              "name": "orderMode",
              "type": "uint8"
            },
            {
              "internalType": "bool",
              "name": "draftCompleted",
              "type": "bool"
            }
          ],
          "indexed": false,
          "internalType": "struct League.DraftConfig",
          "name": "cfg",
          "type": "tuple"
        },
        {
          "indexed": false,
          "internalType": "address[]",
          "name": "manualOrder",
          "type": "address[]"
        },
        {
          "indexed": false,
          "internalType": "bool",
          "name": "draftPickTradingEnabled",
          "type": "bool"
        }
      ],
      "name": "DraftSettingsUpdated",
      "type": "event"
    },
    {
      "anonymous": false,
      "inputs": [
        {
          "indexed": false,
          "internalType": "bytes32",
          "name": "hash",
          "type": "bytes32"
        }
      ],
      "name": "JoinPasswordSet",
      "type": "event"
    },
    {
      "anonymous": false,
      "inputs": [
        {
          "indexed": true,
          "internalType": "address",
          "name": "signer",
          "type": "address"
        }
      ],
      "name": "JoinSignerSet",
      "type": "event"
    },
    {
      "anonymous": false,
      "inputs": [
        {
          "indexed": true,
          "internalType": "address",
          "name": "player",
          "type": "address"
        }
      ],
      "name": "LeagueJoined",
      "type": "event"
    },
    {
      "anonymous": false,
      "inputs": [
        {
          "components": [
            {
              "internalType": "string",
              "name": "leagueName",
              "type": "string"
            },
            {
              "internalType": "string",
              "name": "leagueLogo",
              "type": "string"
            },
            {
              "internalType": "uint8",
              "name": "numberOfTeams",
              "type": "uint8"
            },
            {
              "internalType": "uint8",
              "name": "waiverType",
              "type": "uint8"
            },
            {
              "internalType": "uint64",
              "name": "waiverBudget",
              "type": "uint64"
            },
            {
              "internalType": "uint64",
              "name": "waiverMinBid",
              "type": "uint64"
            },
            {
              "internalType": "uint8",
              "name": "waiverClearance",
              "type": "uint8"
            },
            {
              "internalType": "uint8",
              "name": "waiversAfterDropDays",
              "type": "uint8"
            },
            {
              "internalType": "uint8",
              "name": "tradeReviewDays",
              "type": "uint8"
            },
            {
              "internalType": "uint8",
              "name": "tradeDeadlineWeek",
              "type": "uint8"
            },
            {
              "internalType": "uint8",
              "name": "leagueType",
              "type": "uint8"
            },
            {
              "internalType": "bool",
              "name": "extraGameVsMedian",
              "type": "bool"
            },
            {
              "internalType": "bool",
              "name": "preventDropAfterKickoff",
              "type": "bool"
            },
            {
              "internalType": "bool",
              "name": "lockAllMoves",
              "type": "bool"
            }
          ],
          "indexed": false,
          "internalType": "struct League.LeagueSettings",
          "name": "s",
          "type": "tuple"
        }
      ],
      "name": "LeagueSettingsUpdated",
      "type": "event"
    },
    {
      "anonymous": false,
      "inputs": [
        {
          "indexed": true,
          "internalType": "address",
          "name": "owner",
          "type": "address"
        },
        {
          "indexed": false,
          "internalType": "string",
          "name": "name",
          "type": "string"
        },
        {
          "indexed": true,
          "internalType": "uint256",
          "name": "index",
          "type": "uint256"
        }
      ],
      "name": "TeamCreated",
      "type": "event"
    },
    {
      "anonymous": false,
      "inputs": [
        {
          "indexed": true,
          "internalType": "address",
          "name": "owner",
          "type": "address"
        },
        {
          "indexed": false,
          "internalType": "string",
          "name": "name",
          "type": "string"
        },
        {
          "indexed": false,
          "internalType": "string",
          "name": "logoURI",
          "type": "string"
        },
        {
          "indexed": false,
          "internalType": "uint64",
          "name": "updatedAt",
          "type": "uint64"
        }
      ],
      "name": "TeamProfileUpdated",
      "type": "event"
    },
    {
      "anonymous": false,
      "inputs": [
        {
          "indexed": true,
          "internalType": "address",
          "name": "owner",
          "type": "address"
        },
        {
          "indexed": false,
          "internalType": "string",
          "name": "oldName",
          "type": "string"
        },
        {
          "indexed": false,
          "internalType": "string",
          "name": "newName",
          "type": "string"
        }
      ],
      "name": "TeamRenamed",
      "type": "event"
    },
    {
      "anonymous": false,
      "inputs": [
        {
          "indexed": true,
          "internalType": "address",
          "name": "to",
          "type": "address"
        },
        {
          "indexed": false,
          "internalType": "uint256",
          "name": "amount",
          "type": "uint256"
        }
      ],
      "name": "WithdrawnNative",
      "type": "event"
    },
    {
      "anonymous": false,
      "inputs": [
        {
          "indexed": true,
          "internalType": "address",
          "name": "to",
          "type": "address"
        },
        {
          "indexed": false,
          "internalType": "uint256",
          "name": "amount",
          "type": "uint256"
        }
      ],
      "name": "WithdrawnToken",
      "type": "event"
    },
    {
      "inputs": [
        {
          "internalType": "address",
          "name": "owner",
          "type": "address"
        },
        {
          "internalType": "string",
          "name": "newName",
          "type": "string"
        },
        {
          "internalType": "string",
          "name": "newLogoURI",
          "type": "string"
        }
      ],
      "name": "adminSetTeamProfile",
      "outputs": [],
      "stateMutability": "nonpayable",
      "type": "function"
    },
    {
      "inputs": [],
      "name": "buyInAmount",
      "outputs": [
        {
          "internalType": "uint256",
          "name": "",
          "type": "uint256"
        }
      ],
      "stateMutability": "view",
      "type": "function"
    },
    {
      "inputs": [],
      "name": "buyInToken",
      "outputs": [
        {
          "internalType": "address",
          "name": "",
          "type": "address"
        }
      ],
      "stateMutability": "view",
      "type": "function"
    },
    {
      "inputs": [],
      "name": "clearJoinPassword",
      "outputs": [],
      "stateMutability": "nonpayable",
      "type": "function"
    },
    {
      "inputs": [],
      "name": "commissioner",
      "outputs": [
        {
          "internalType": "address",
          "name": "",
          "type": "address"
        }
      ],
      "stateMutability": "view",
      "type": "function"
    },
    {
      "inputs": [
        {
          "internalType": "string",
          "name": "_teamName",
          "type": "string"
        },
        {
          "internalType": "string",
          "name": "password",
          "type": "string"
        }
      ],
      "name": "createTeam",
      "outputs": [],
      "stateMutability": "nonpayable",
      "type": "function"
    },
    {
      "inputs": [
        {
          "internalType": "string",
          "name": "_teamName",
          "type": "string"
        },
        {
          "internalType": "uint256",
          "name": "deadline",
          "type": "uint256"
        },
        {
          "internalType": "bytes",
          "name": "sig",
          "type": "bytes"
        }
      ],
      "name": "createTeamWithSig",
      "outputs": [],
      "stateMutability": "nonpayable",
      "type": "function"
    },
    {
      "inputs": [],
      "name": "createdAt",
      "outputs": [
        {
          "internalType": "uint256",
          "name": "",
          "type": "uint256"
        }
      ],
      "stateMutability": "view",
      "type": "function"
    },
    {
      "inputs": [],
      "name": "draftConfig",
      "outputs": [
        {
          "internalType": "enum League.DraftType",
          "name": "draftType",
          "type": "uint8"
        },
        {
          "internalType": "uint64",
          "name": "draftTimestamp",
          "type": "uint64"
        },
        {
          "internalType": "enum League.OrderMode",
          "name": "orderMode",
          "type": "uint8"
        },
        {
          "internalType": "bool",
          "name": "draftCompleted",
          "type": "bool"
        }
      ],
      "stateMutability": "view",
      "type": "function"
    },
    {
      "inputs": [],
      "name": "draftPickTradingEnabled",
      "outputs": [
        {
          "internalType": "bool",
          "name": "",
          "type": "bool"
        }
      ],
      "stateMutability": "view",
      "type": "function"
    },
    {
      "inputs": [],
      "name": "escrowBalances",
      "outputs": [
        {
          "internalType": "uint256",
          "name": "nativeBalance",
          "type": "uint256"
        },
        {
          "internalType": "uint256",
          "name": "tokenBalance",
          "type": "uint256"
        }
      ],
      "stateMutability": "view",
      "type": "function"
    },
    {
      "inputs": [],
      "name": "getDraftSettings",
      "outputs": [
        {
          "internalType": "enum League.DraftType",
          "name": "",
          "type": "uint8"
        },
        {
          "internalType": "uint64",
          "name": "",
          "type": "uint64"
        },
        {
          "internalType": "enum League.OrderMode",
          "name": "",
          "type": "uint8"
        },
        {
          "internalType": "bool",
          "name": "",
          "type": "bool"
        },
        {
          "internalType": "address[]",
          "name": "",
          "type": "address[]"
        },
        {
          "internalType": "bool",
          "name": "",
          "type": "bool"
        }
      ],
      "stateMutability": "view",
      "type": "function"
    },
    {
      "inputs": [],
      "name": "getLeagueSettings",
      "outputs": [
        {
          "components": [
            {
              "internalType": "string",
              "name": "leagueName",
              "type": "string"
            },
            {
              "internalType": "string",
              "name": "leagueLogo",
              "type": "string"
            },
            {
              "internalType": "uint8",
              "name": "numberOfTeams",
              "type": "uint8"
            },
            {
              "internalType": "uint8",
              "name": "waiverType",
              "type": "uint8"
            },
            {
              "internalType": "uint64",
              "name": "waiverBudget",
              "type": "uint64"
            },
            {
              "internalType": "uint64",
              "name": "waiverMinBid",
              "type": "uint64"
            },
            {
              "internalType": "uint8",
              "name": "waiverClearance",
              "type": "uint8"
            },
            {
              "internalType": "uint8",
              "name": "waiversAfterDropDays",
              "type": "uint8"
            },
            {
              "internalType": "uint8",
              "name": "tradeReviewDays",
              "type": "uint8"
            },
            {
              "internalType": "uint8",
              "name": "tradeDeadlineWeek",
              "type": "uint8"
            },
            {
              "internalType": "uint8",
              "name": "leagueType",
              "type": "uint8"
            },
            {
              "internalType": "bool",
              "name": "extraGameVsMedian",
              "type": "bool"
            },
            {
              "internalType": "bool",
              "name": "preventDropAfterKickoff",
              "type": "bool"
            },
            {
              "internalType": "bool",
              "name": "lockAllMoves",
              "type": "bool"
            }
          ],
          "internalType": "struct League.LeagueSettings",
          "name": "s",
          "type": "tuple"
        }
      ],
      "stateMutability": "view",
      "type": "function"
    },
    {
      "inputs": [],
      "name": "getSummary",
      "outputs": [
        {
          "internalType": "string",
          "name": "_name",
          "type": "string"
        },
        {
          "internalType": "address",
          "name": "_buyInToken",
          "type": "address"
        },
        {
          "internalType": "uint256",
          "name": "_buyInAmount",
          "type": "uint256"
        },
        {
          "internalType": "uint256",
          "name": "_teamCap",
          "type": "uint256"
        },
        {
          "internalType": "uint256",
          "name": "_teamsFilled",
          "type": "uint256"
        },
        {
          "internalType": "bool",
          "name": "_requiresPassword",
          "type": "bool"
        },
        {
          "internalType": "address",
          "name": "_commissioner",
          "type": "address"
        }
      ],
      "stateMutability": "view",
      "type": "function"
    },
    {
      "inputs": [
        {
          "internalType": "address",
          "name": "user",
          "type": "address"
        }
      ],
      "name": "getTeamByAddress",
      "outputs": [
        {
          "internalType": "string",
          "name": "teamName",
          "type": "string"
        }
      ],
      "stateMutability": "view",
      "type": "function"
    },
    {
      "inputs": [
        {
          "internalType": "address",
          "name": "owner",
          "type": "address"
        }
      ],
      "name": "getTeamProfile",
      "outputs": [
        {
          "internalType": "string",
          "name": "",
          "type": "string"
        },
        {
          "internalType": "string",
          "name": "",
          "type": "string"
        },
        {
          "internalType": "uint64",
          "name": "",
          "type": "uint64"
        }
      ],
      "stateMutability": "view",
      "type": "function"
    },
    {
      "inputs": [],
      "name": "getTeams",
      "outputs": [
        {
          "components": [
            {
              "internalType": "address",
              "name": "owner",
              "type": "address"
            },
            {
              "internalType": "string",
              "name": "name",
              "type": "string"
            }
          ],
          "internalType": "struct League.Team[]",
          "name": "",
          "type": "tuple[]"
        }
      ],
      "stateMutability": "view",
      "type": "function"
    },
    {
      "inputs": [
        {
          "internalType": "address",
          "name": "user",
          "type": "address"
        }
      ],
      "name": "hasPaid",
      "outputs": [
        {
          "internalType": "bool",
          "name": "",
          "type": "bool"
        }
      ],
      "stateMutability": "view",
      "type": "function"
    },
    {
      "inputs": [
        {
          "internalType": "address",
          "name": "user",
          "type": "address"
        }
      ],
      "name": "isMember",
      "outputs": [
        {
          "internalType": "bool",
          "name": "",
          "type": "bool"
        }
      ],
      "stateMutability": "view",
      "type": "function"
    },
    {
      "inputs": [
        {
          "internalType": "string",
          "name": "_teamName",
          "type": "string"
        },
        {
          "internalType": "string",
          "name": "password",
          "type": "string"
        }
      ],
      "name": "joinLeague",
      "outputs": [],
      "stateMutability": "payable",
      "type": "function"
    },
    {
      "inputs": [
        {
          "internalType": "string",
          "name": "_teamName",
          "type": "string"
        },
        {
          "internalType": "uint256",
          "name": "deadline",
          "type": "uint256"
        },
        {
          "internalType": "bytes",
          "name": "sig",
          "type": "bytes"
        }
      ],
      "name": "joinLeagueWithSig",
      "outputs": [],
      "stateMutability": "payable",
      "type": "function"
    },
    {
      "inputs": [],
      "name": "joinPasswordHash",
      "outputs": [
        {
          "internalType": "bytes32",
          "name": "",
          "type": "bytes32"
        }
      ],
      "stateMutability": "view",
      "type": "function"
    },
    {
      "inputs": [],
      "name": "joinSigner",
      "outputs": [
        {
          "internalType": "address",
          "name": "",
          "type": "address"
        }
      ],
      "stateMutability": "view",
      "type": "function"
    },
    {
      "inputs": [
        {
          "internalType": "uint256",
          "name": "",
          "type": "uint256"
        }
      ],
      "name": "manualDraftOrder",
      "outputs": [
        {
          "internalType": "address",
          "name": "",
          "type": "address"
        }
      ],
      "stateMutability": "view",
      "type": "function"
    },
    {
      "inputs": [],
      "name": "name",
      "outputs": [
        {
          "internalType": "string",
          "name": "",
          "type": "string"
        }
      ],
      "stateMutability": "view",
      "type": "function"
    },
    {
      "inputs": [
        {
          "internalType": "address",
          "name": "user",
          "type": "address"
        }
      ],
      "name": "outstandingOf",
      "outputs": [
        {
          "internalType": "uint256",
          "name": "",
          "type": "uint256"
        }
      ],
      "stateMutability": "view",
      "type": "function"
    },
    {
      "inputs": [
        {
          "internalType": "address",
          "name": "",
          "type": "address"
        }
      ],
      "name": "paid",
      "outputs": [
        {
          "internalType": "uint256",
          "name": "",
          "type": "uint256"
        }
      ],
      "stateMutability": "view",
      "type": "function"
    },
    {
      "inputs": [],
      "name": "payBuyIn",
      "outputs": [],
      "stateMutability": "payable",
      "type": "function"
    },
    {
      "inputs": [],
      "name": "requiresPassword",
      "outputs": [
        {
          "internalType": "bool",
          "name": "",
          "type": "bool"
        }
      ],
      "stateMutability": "view",
      "type": "function"
    },
    {
      "inputs": [
        {
          "internalType": "enum League.DraftType",
          "name": "_draftType",
          "type": "uint8"
        },
        {
          "internalType": "uint64",
          "name": "_draftTimestamp",
          "type": "uint64"
        },
        {
          "internalType": "enum League.OrderMode",
          "name": "_orderMode",
          "type": "uint8"
        },
        {
          "internalType": "address[]",
          "name": "_manualOrder",
          "type": "address[]"
        },
        {
          "internalType": "bool",
          "name": "_draftCompleted",
          "type": "bool"
        },
        {
          "internalType": "bool",
          "name": "_draftPickTradingEnabled",
          "type": "bool"
        }
      ],
      "name": "setDraftSettings",
      "outputs": [],
      "stateMutability": "nonpayable",
      "type": "function"
    },
    {
      "inputs": [
        {
          "internalType": "bytes32",
          "name": "passwordHash",
          "type": "bytes32"
        }
      ],
      "name": "setJoinPassword",
      "outputs": [],
      "stateMutability": "nonpayable",
      "type": "function"
    },
    {
      "inputs": [
        {
          "internalType": "address",
          "name": "signer",
          "type": "address"
        }
      ],
      "name": "setJoinSigner",
      "outputs": [],
      "stateMutability": "nonpayable",
      "type": "function"
    },
    {
      "inputs": [
        {
          "components": [
            {
              "internalType": "string",
              "name": "leagueName",
              "type": "string"
            },
            {
              "internalType": "string",
              "name": "leagueLogo",
              "type": "string"
            },
            {
              "internalType": "uint8",
              "name": "numberOfTeams",
              "type": "uint8"
            },
            {
              "internalType": "uint8",
              "name": "waiverType",
              "type": "uint8"
            },
            {
              "internalType": "uint64",
              "name": "waiverBudget",
              "type": "uint64"
            },
            {
              "internalType": "uint64",
              "name": "waiverMinBid",
              "type": "uint64"
            },
            {
              "internalType": "uint8",
              "name": "waiverClearance",
              "type": "uint8"
            },
            {
              "internalType": "uint8",
              "name": "waiversAfterDropDays",
              "type": "uint8"
            },
            {
              "internalType": "uint8",
              "name": "tradeReviewDays",
              "type": "uint8"
            },
            {
              "internalType": "uint8",
              "name": "tradeDeadlineWeek",
              "type": "uint8"
            },
            {
              "internalType": "uint8",
              "name": "leagueType",
              "type": "uint8"
            },
            {
              "internalType": "bool",
              "name": "extraGameVsMedian",
              "type": "bool"
            },
            {
              "internalType": "bool",
              "name": "preventDropAfterKickoff",
              "type": "bool"
            },
            {
              "internalType": "bool",
              "name": "lockAllMoves",
              "type": "bool"
            }
          ],
          "internalType": "struct League.LeagueSettings",
          "name": "s",
          "type": "tuple"
        }
      ],
      "name": "setLeagueSettings",
      "outputs": [],
      "stateMutability": "nonpayable",
      "type": "function"
    },
    {
      "inputs": [
        {
          "internalType": "string",
          "name": "newName",
          "type": "string"
        }
      ],
      "name": "setTeamName",
      "outputs": [],
      "stateMutability": "nonpayable",
      "type": "function"
    },
    {
      "inputs": [
        {
          "internalType": "string",
          "name": "newName",
          "type": "string"
        },
        {
          "internalType": "string",
          "name": "newLogoURI",
          "type": "string"
        }
      ],
      "name": "setTeamProfile",
      "outputs": [],
      "stateMutability": "nonpayable",
      "type": "function"
    },
    {
      "inputs": [],
      "name": "teamCap",
      "outputs": [
        {
          "internalType": "uint256",
          "name": "",
          "type": "uint256"
        }
      ],
      "stateMutability": "view",
      "type": "function"
    },
    {
      "inputs": [
        {
          "internalType": "address",
          "name": "",
          "type": "address"
        }
      ],
      "name": "teamIndex",
      "outputs": [
        {
          "internalType": "uint256",
          "name": "",
          "type": "uint256"
        }
      ],
      "stateMutability": "view",
      "type": "function"
    },
    {
      "inputs": [
        {
          "internalType": "uint256",
          "name": "",
          "type": "uint256"
        }
      ],
      "name": "teamList",
      "outputs": [
        {
          "internalType": "address",
          "name": "owner",
          "type": "address"
        },
        {
          "internalType": "string",
          "name": "name",
          "type": "string"
        }
      ],
      "stateMutability": "view",
      "type": "function"
    },
    {
      "inputs": [
        {
          "internalType": "address",
          "name": "",
          "type": "address"
        }
      ],
      "name": "teams",
      "outputs": [
        {
          "internalType": "address",
          "name": "owner",
          "type": "address"
        },
        {
          "internalType": "string",
          "name": "name",
          "type": "string"
        }
      ],
      "stateMutability": "view",
      "type": "function"
    },
    {
      "inputs": [],
      "name": "teamsFilled",
      "outputs": [
        {
          "internalType": "uint256",
          "name": "",
          "type": "uint256"
        }
      ],
      "stateMutability": "view",
      "type": "function"
    },
    {
      "inputs": [],
      "name": "totalPaid",
      "outputs": [
        {
          "internalType": "uint256",
          "name": "",
          "type": "uint256"
        }
      ],
      "stateMutability": "view",
      "type": "function"
    },
    {
      "inputs": [
        {
          "internalType": "address",
          "name": "newCommissioner",
          "type": "address"
        }
      ],
      "name": "transferCommissioner",
      "outputs": [],
      "stateMutability": "nonpayable",
      "type": "function"
    },
    {
      "inputs": [],
      "name": "version",
      "outputs": [
        {
          "internalType": "uint16",
          "name": "",
          "type": "uint16"
        }
      ],
      "stateMutability": "pure",
      "type": "function"
    },
    {
      "inputs": [
        {
          "internalType": "address payable",
          "name": "to",
          "type": "address"
        },
        {
          "internalType": "uint256",
          "name": "amount",
          "type": "uint256"
        }
      ],
      "name": "withdrawNative",
      "outputs": [],
      "stateMutability": "nonpayable",
      "type": "function"
    },
    {
      "inputs": [
        {
          "internalType": "address",
          "name": "to",
          "type": "address"
        },
        {
          "internalType": "uint256",
          "name": "amount",
          "type": "uint256"
        }
      ],
      "name": "withdrawToken",
      "outputs": [],
      "stateMutability": "nonpayable",
      "type": "function"
    },
    {
      "stateMutability": "payable",
      "type": "receive"
    }
  ],
  "bytecode": "0x60e060405234610b9a57614e388038038061001981610b9e565b928339810160a082820312610b9a5761003182610bc3565b60208301516001600160401b038111610b9a57830182601f82011215610b9a578051906001600160401b03821161078257610075601f8301601f1916602001610b9e565b9382855260208383010111610b9a57815f9260208093018387015e840101526100a060408401610bc3565b606084015160809094015160015f556001600160a01b0390921693908415610b6257835115610b2d5782151580610b22575b15610ae957600180546001600160a01b0319168617905583516001600160401b03811161078257600254600181811c91168015610adf575b602082101461076457601f8111610a7c575b50806020601f8211600114610a18575f91610a0d575b508160011b915f199060031b1c1916176002555b60a05260c052600381905542608052604080519081016001600160401b038111828210176107825760405283815261017c610bd7565b6020820152835f5260056020526101968160405f20610bfd565b60065490680100000000000000008210156107825760018201806006558210156109f95760065f526101ec9160011b7ff652222313e28459528d920b65115c16c04f3efc82aaedc97be59f3f377c0d3f01610bfd565b825f526007602052600160405f20556001600455604051926060840184811060018060401b0382111761078257604052610224610bd7565b845260209361023285610b9e565b5f8082528683019182526001600160401b03428116604080860191825295835260088952949091209251805191821161078257835490600182811c921680156109ef575b898310146107645781601f8493116109a1575b508890601f831160011461093e575f92610933575b50508160011b915f199060031b1c19161782555b51805160018301916001600160401b038211610782578254600181811c91168015610929575b8982101461076457601f81116108e6575b508790601f831160011461087f576002949392915f9183610874575b50508160011b915f199060031b1c19161790555b9151910180546001600160401b0319166001600160401b03928316179055604051906080820190811182821017610782576040525f8152838101905f825260408101905f825260608101905f8252519161037283610d40565b61037b83610d40565b600d54935190519260089190911b68ffffffffffffffff0016906002841015610860576aff0000000000000000000069ff0000000000000000009351151560501b169460ff6aff000000000000000000001992169060018060501b0319161716179160481b161717600d5560ff19600f5416600f55604051906101c082019282841060018060401b03851117610782575f93604052825261041b84610b9e565b83815284830190815260ff60408401921682526060830194848652608084019285845260a085019686885260c086019287845260e0870198888a5261010088018981526101208901928a84526101408a01958b87526101608b01988c8a526101808c019b60018d526101a081019d8e525180519060018060401b0382116107825760115490600182811c92168015610856575b868310146107645781601f849311610807575b508590601f83116001146107a1575f92610796575b50508160011b915f199060031b1c1916176011555b51805190926001600160401b03821161078257601254600181811c91168015610778575b8282101461076457601f8111610720575b5080601f83116001146106b55750819060ff945f926106aa575b50508160011b915f199060031b1c1916176012555b516013805496519a51945198519d5193519551975199519b519c5160ff60c01b9d151560c01b9d909d1660ff60b81b9c151560b81b9c909c16600160501b600160d01b031993909216929092166001600160d01b03199096169590951760089990991b61ff00169890981760109290921b69ffffffffffffffff0000169190911760509590951b71ffffffffffffffff00000000000000000000169490941760909990991b60ff60901b169890981760989390931b60ff60981b169290921760a09790971b60ff60a01b169690961760a89690961b60ff60a81b169590951760b09190911b60ff60b01b1617939093171790151560c81b60ff60c81b161790556040516140ed9081610d4b823960805181610658015260a0518181816104b90152818161191a0152818161224f0152818161235b015281816128aa0152613b90015260c05181818161061e0152818161238a01526136470152f35b015190505f8061053a565b919293601f19841660125f52835f20935f905b82821061070857505091600193918560ff979694106106f0575b505050811b0160125561054f565b01515f1960f88460031b161c191690555f80806106e2565b806001869782949787015181550196019401906106c8565b60125f52815f20601f840160051c81019183851061075a575b601f0160051c01905b81811061074f5750610520565b5f8155600101610742565b9091508190610739565b634e487b7160e01b5f52602260045260245ffd5b90607f169061050f565b634e487b7160e01b5f52604160045260245ffd5b015190505f806104d6565b60115f9081528781209350601f198516905b888282106107f15750509084600195949392106107d9575b505050811b016011556104eb565b01515f1960f88460031b161c191690555f80806107cb565b60018596829396860151815501950193016107b3565b90915060115f52855f20601f840160051c81019187851061084c575b90601f859493920160051c01905b81811061083e57506104c1565b5f8155849350600101610831565b9091508190610823565b91607f16916104ae565b634e487b7160e01b5f52602160045260245ffd5b015190505f80610305565b90601f19831691845f52895f20925f5b8b8282106108d0575050916001939185600298979694106108b8575b505050811b019055610319565b01515f1960f88460031b161c191690555f80806108ab565b600185968293968601518155019501930161088f565b835f52885f20601f840160051c8101918a851061091f575b601f0160051c01905b81811061091457506102e9565b5f8155600101610907565b90915081906108fe565b90607f16906102d8565b015190505f8061029e565b5f8681528a81209350601f198516905b8b82821061098b575050908460019594939210610973575b505050811b0182556102b2565b01515f1960f88460031b161c191690555f8080610966565b600185968293968601518155019501930161094e565b909150845f52885f20601f840160051c8101918a85106109e5575b90601f859493920160051c01905b8181106109d75750610289565b5f81558493506001016109ca565b90915081906109bc565b91607f1691610276565b634e487b7160e01b5f52603260045260245ffd5b90508501515f610132565b60025f9081528181209250601f198416905b818110610a6457509083600194939210610a4c575b5050811b01600255610146565b8701515f1960f88460031b161c191690555f80610a3f565b9192602060018192868c015181550194019201610a2a565b60025f527f405787fa12a823e0f2b7631cc41b3ba8828b3321ca811111fa75cd3aa3bb5ace601f830160051c81019160208410610ad5575b601f0160051c01905b818110610aca575061011c565b5f8155600101610abd565b9091508190610ab4565b90607f169061010a565b60405162461bcd60e51b81526020600482015260116024820152705465616d20636f756e7420312e2e32353560781b6044820152606490fd5b5060ff8311156100d2565b60405162461bcd60e51b815260206004820152600d60248201526c13985b59481c995c5d5a5c9959609a1b6044820152606490fd5b60405162461bcd60e51b815260206004820152601060248201526f2130b21031b7b6b6b4b9b9b4b7b732b960811b6044820152606490fd5b5f80fd5b6040519190601f01601f191682016001600160401b0381118382101761078257604052565b51906001600160a01b0382168203610b9a57565b610be16040610b9e565b90600c82526b21b7b6b6b4b9b9b4b7b732b960a11b6020830152565b815181546001600160a01b0319166001600160a01b0391909116178155602091909101518051909291600101906001600160401b038111610782578154600181811c91168015610d36575b602082101461076457601f8111610cf1575b506020601f8211600114610c9357819293945f92610c88575b50508160011b915f199060031b1c1916179055565b015190505f80610c73565b601f19821690835f52805f20915f5b818110610cd957509583600195969710610cc1575b505050811b019055565b01515f1960f88460031b161c191690555f8080610cb7565b9192602060018192868b015181550194019201610ca2565b825f5260205f20601f830160051c81019160208410610d2c575b601f0160051c01905b818110610d215750610c5a565b5f8155600101610d14565b9091508190610d0b565b90607f1690610c48565b600411156108605756fe60a0604052600436101561001a575b3615610018575f80fd5b005b5f3560e01c806301a682c114612e4557806306fdde0314612e22578063074882e4146129d957806307b18bde1461286257806319aa69b91461281b5780632166e1bb146127f7578063376d3394146127d85780633e93796114612772578063400bbcfc146123c95780634051ddac1461230257806347a29ac01461223d5780634ea701a8146121e457806354fd4d50146121c9578063604b9546146121565780636164fa2514611c7f57806366ad03f714611c47578063673851aa14611bf25780636c83816c14611b8a5780636d81779b14611b6d57806377a1875a14611b47578063809da92414611b255780639970767314611afd57806399dc923314611abb5780639d9b5532146119fa5780639e281a98146118df578063a230c5241461189d578063a340cf7914611865578063af730af714611848578063b995ac5b146114af578063ba2b82c814611492578063c0680c0d14611233578063c149276a1461079f578063c458324014610740578063c7be6f1c1461067b578063cf09e0d014610641578063d165dac214610607578063d69e8303146105ae578063e18c1a98146104e8578063e6d43e4c146104a4578063e749590414610427578063e7b0f6661461040a578063ee81feb1146103af578063f189449814610387578063f4ec521e1461023d5763fbf47a9a0361000e573461023957602036600319011261023957602061023061022b6131ff565b613645565b15604051908152f35b5f80fd5b34610239575f366003190112610239576006546001600160401b038111610373576040519061027260208260051b0183613165565b80825260065f9081526020830191907ff652222313e28459528d920b65115c16c04f3efc82aaedc97be59f3f377c0d3f835b83831061032957848660405191829160208301906020845251809152604083019060408160051b85010192915f905b8282106102e257505050500390f35b919360019193955060206103198192603f198a82030186526040838a51878060a01b03815116845201519181858201520190613186565b96019201920185949391926102d3565b6002602060019260405161033c8161314a565b848060a01b0386541681526040516103618161035a81898b016130ad565b0382613165565b838201528152019201920191906102a4565b634e487b7160e01b5f52604160045260245ffd5b34610239575f366003190112610239576001546040516001600160a01b039091168152602090f35b34610239575f366003190112610239576080600d5460ff80821691604051926103d78161327e565b83526001600160401b038160081c1660208401526103fd60408401838360481c16613288565b60501c1615156060820152f35b34610239575f366003190112610239576020600a54604051908152f35b34610239576020366003190112610239576104406131ff565b6001546001600160a01b038116916104593384146134d7565b6001600160a01b0316918290610470821515613517565b7fd9e4c6367fd51d0cc63bf2aa5afd9419618194468aa1187ad9643e569b03869b5f80a36001600160a01b03191617600155005b34610239575f366003190112610239576040517f00000000000000000000000000000000000000000000000000000000000000006001600160a01b03168152602090f35b346102395760203660031901126102395761058061053e6001600160a01b0361050f6131ff565b16805f52600860205260405f20906105278254612ee3565b156105985750610545815b604051938480926130ad565b0383613165565b61058e600161056c6001600160401b036002850154169361035a60405180948193016130ad565b604051948594606086526060860190613186565b908482036020860152613186565b9060408301520390f35b5f526005602052610545600160405f2001610532565b34610239576020366003190112610239577f051ae5307d3be8e3ee1375c49f3d1a58649682f52b6dbc8b84902b7b2fbb59d760206004356105fa60018060a01b036001541633146134d7565b80600b55604051908152a1005b34610239575f3660031901126102395760206040517f00000000000000000000000000000000000000000000000000000000000000008152f35b34610239575f3660031901126102395760206040517f00000000000000000000000000000000000000000000000000000000000000008152f35b34610239575f36600319011261023957600d5460ff81169060ff600f5416604051906106aa8261053e816135c2565b60ff6040519360c08501956106be8161327e565b85526001600160401b038160081c1660208601526106e460408601838360481c16613288565b60501c161515606084015260c060808401528151809452602060e0840192015f945b80861061071d575050829350151560a08301520390f35b81516001600160a01b031684526001959095019460209384019390910190610706565b34610239576020366003190112610239576001600160a01b036107616131ff565b165f526005602052600160405f2061078c828060a01b038254169161053e60405180958193016130ad565b61079b604051928392836131da565b0390f35b34610239576020366003190112610239576004356001600160401b0381116102395780600401906101c06003198236030112610239576107ea60018060a01b036001541633146134d7565b6107f482806136a0565b9050156111f757604481019060ff61080b836136d2565b161515806111e2575b156111ae5760ff610824836136d2565b16600454116111695760e4810192600360ff61083f866136d2565b161161112857610104820193600360ff610858876136d2565b16116110ec57610124830160ff61086e826136d2565b1661102e575b6064840195600260ff610886896136d2565b1611610ff85760c4850192600360ff61089e866136d2565b1611610fc357610144860193600260ff6108b7876136d2565b1611610f8d576108c786806136a0565b6001600160401b03819b929b11610373576108e3600254612ee3565b601f8111610f52575b505f601f8211600114610ede57908061091d928b9c9d5f92610ed3575b50508160011b915f199060031b1c19161790565b6002555b61092a8a6136d2565b60ff1660035561093a87806136a0565b9a909760248a0161094a916136a0565b929091610956906136d2565b90610960906136d2565b9161096d60848c016136e0565b9361097a60a48d016136e0565b95610984906136d2565b9661098e906136d2565b97610998906136d2565b986109a2906136d2565b996109ac906136d2565b9a6109ba6101648e016136f4565b9c610184016109c8906136f4565b9d6101a4016109d6906136f4565b9e6040516080526080516109e99061312e565b36906109f492613370565b608051523690610a0392613370565b6080516020015260ff166080516040015260ff16608051606001526001600160401b0316608051608001526001600160401b031660805160a0015260ff1660805160c0015260ff1660805160e0015260ff16608051610100015260ff16608051610120015260ff166080516101400152151560805161016001521515608051610180015215156080516101a001526080515180516001600160401b03811161037357610ab0601154612ee3565b601f8111610e85575b506020601f8211600114610e22578190610ae7935f92610d5b5750508160011b915f199060031b1c19161790565b6011555b6020608051015180516001600160401b03811161037357610b0d601254612ee3565b601f8111610dc9575b506020601f8211600114610d66578190610b44935f92610d5b5750508160011b915f199060031b1c19161790565b6012555b608080516040818101516013805460608501519585015160a08087015160c08089015160e08a01516101008b01516101208c01516101408d01516101608e01516101808f01516101a0909f015160ff60c01b9f151590971b9e909e1660ff60b81b9e151560b81b9e909e166001600160d01b0319909a1660ff9c8d161760089f909f1b61ff00169e909e1760109890981b69ffffffffffffffff0000169790971760509590951b67ffffffffffffffff60501b169490941760909290921b60ff60901b169190911760989190911b60ff60981b16179190921b60ff60a01b161760a89290921b60ff60a81b169190911760b09790971b60ff60b01b16969096171793841760ff60c81b95151560c81b959095169490941793849055905160208082526101c0908201527fb7f51a9aba7e5cf5ce953a60cee5a9fb50dda9eb796b2f57ceb57f561b3171f99390928392909181610cbb610caa6101e08701612fa7565b868103601f1901604088015261302a565b93165f176060850152818160081c1660808501526001600160401b038160101c1660a08501526001600160401b038160501c1660c0850152818160901c1660e0850152818160981c16610100850152818160a01c16610120850152818160a81c16610140850152818160b01c16610160850152818160b81c161515610180850152818160c01c1615156101a085015260c81c1615156101c08301520390a1005b015190508380610909565b60125f52805f20905f5b601f1984168110610db1575060019383601f19811610610d99575b505050811b01601255610b48565b01515f1960f88460031b161c19169055828080610d8b565b90916020600181928588015181550193019101610d70565b60125f52610e12907fbb8a6a4669ba250d26cd7a459eca9d215f8307e33aebe50379bc5a3617ec3444601f840160051c81019160208510610e18575b601f0160051c01906133e1565b82610b16565b9091508190610e05565b60115f52805f20905f5b601f1984168110610e6d575060019383601f19811610610e55575b505050811b01601155610aeb565b01515f1960f88460031b161c19169055828080610e47565b90916020600181928588015181550193019101610e2c565b60115f52610ecd907f31ecc21a745e3968a04e9570e4425bc18fa8019c68028196b546d1669c200c68601f840160051c81019160208510610e1857601f0160051c01906133e1565b82610ab9565b013590508d80610909565b60025f9081525f5160206140585f395f51905f529190601f198416905b818110610f3a57509c8392916001948d9e9f10610f21575b505050811b01600255610921565b01355f19600384901b60f8161c191690558c8080610f13565b8e830135845560019093019260209283019201610efb565b60025f52610f87905f5160206140585f395f51905f52601f840160051c81019160208510610e1857601f0160051c01906133e1565b8b6108ec565b60405162461bcd60e51b815260206004820152600e60248201526d426164206c65616775655479706560901b6044820152606490fd5b60405162461bcd60e51b815260206004820152600d60248201526c42616420636c656172616e636560981b6044820152606490fd5b60405162461bcd60e51b815260206004820152600e60248201526d426164207761697665725479706560901b6044820152606490fd5b600960ff61103b836136d2565b161480156110d7575b80156110c2575b80156110ad575b8015611098575b6108745760405162461bcd60e51b8152602060048201526013602482015272646561646c696e652030206f7220392e2e313360681b6044820152606490fd5b50600d60ff6110a6836136d2565b1614611059565b50600c60ff6110bb836136d2565b1614611052565b50600b60ff6110d0836136d2565b161461104b565b50600a60ff6110e5836136d2565b1614611044565b60405162461bcd60e51b815260206004820152601460248201527374726164655265766965774461797320302e2e3360601b6044820152606490fd5b60405162461bcd60e51b815260206004820152601960248201527877616976657273416674657244726f704461797320302e2e3360381b6044820152606490fd5b60405162461bcd60e51b815260206004820152601a60248201527f42656c6f772063757272656e742066696c6c6564207465616d730000000000006044820152606490fd5b60405162461bcd60e51b815260206004820152600c60248201526b5465616d7320312e2e32353560a01b6044820152606490fd5b5060ff806111ef846136d2565b161115610814565b60405162461bcd60e51b815260206004820152601460248201527313195859dd59481b985b59481c995c5d5a5c995960621b6044820152606490fd5b34610239575f3660031901126102395760405161124f8161312e565b606081526020810160609052604081015f9052606081015f9052608081015f905260a081015f905260c081015f905260e081015f905261010081015f905261012081015f905261014081015f905261016081015f905261018081015f90526101a0015f90526040516112c08161312e565b604051806112cd81612fa7565b036112d89082613165565b815260405190816112e88161302a565b036112f39083613165565b60208101918252601354604082019060ff81168252606083018160081c60ff168152608084018260101c6001600160401b0316815260a085018360501c6001600160401b0316815260c086018460901c60ff16815260e087018560981c60ff1681526101008801908660a01c60ff1682526101208901928760a81c60ff1684526101408a01948860b01c60ff1686526101608b01968960b81c60ff16151588526101808c01988a60c01c60ff1615158a526101a08d019a60c81c60ff1615158b52604051806113c181612f1b565b036113cc9082613165565b8d5260035460ff168c52604051809e819e6020835251602083016101c090526101e083016113f991613186565b9051828203601f190160408401526114119190613186565b9c5160ff1690606001525160ff1660808d0152516001600160401b031660a08c0152516001600160401b031660c08b01525160ff1660e08a01525160ff166101008901525160ff166101208801525160ff166101408701525160ff166101608601525115156101808501525115156101a08401525115156101c08301520390f35b34610239575f366003190112610239576020600b54604051908152f35b34610239576020366003190112610239576004356001600160401b038111610239576114df903690600401612e66565b335f90815260056020526040902054611502906001600160a01b031615156133a6565b80156118165761053e90335f52600560205261152a600160405f2001604051938480926130ad565b335f526005602052600160405f20016001600160401b03821192836103735761155d836115578454612ee3565b8461341f565b601f8311915f84600185146117b3578061158b925f91611731575b508160011b915f199060031b1c19161790565b90555b335f52600760205260405f2054806116ce575b505f5160206140985f395f51905f52604051806115c18689339684613464565b0390a2335f52600860205260405f2092610373576115e9826115e38554612ee3565b8561341f565b5f9060011461166d57819061161393945f926116625750508160011b915f199060031b1c19161790565b81555b60028101805467ffffffffffffffff1916426001600160401b031690811790915560405133925f5160206140785f395f51905f5292829161165d919060018101908461349e565b0390a2005b013590508480610909565b601f19821693835f5260205f20915f5b8681106116b6575083600195961061169d575b505050811b018155611616565b01355f19600384901b60f8161c19169055838080611690565b9092602060018192868601358155019401910161167d565b9093505f19810190811161179f576116e76001916131aa565b5001925f93611700846116fa8354612ee3565b8361341f565b5f848460011461173c5780611728925f9161173157508160011b915f199060031b1c19161790565b90555b856115a1565b905088013589611578565b50601f19851690825f528560205f20925f5b81811061178457501061176b575b5050600184811b01905561172b565b8701355f19600387901b60f8161c19169055868061175c565b8a84013585556001909401936020938401938993500161174e565b634e487b7160e01b5f52601160045260245ffd5b50601f19851690825f528560205f20925f5b8181106117fb5750106117e2575b5050600184811b01905561158e565b8701355f19600387901b60f8161c1916905586806117d3565b8a8401358555600190940193602093840193899350016117c5565b60405162461bcd60e51b815260206004820152600a602482015269456d707479206e616d6560b01b6044820152606490fd5b34610239575f366003190112610239576020600454604051908152f35b34610239576020366003190112610239576001600160a01b036118866131ff565b165f526009602052602060405f2054604051908152f35b34610239576020366003190112610239576001600160a01b036118be6131ff565b165f526005602052602060018060a01b0360405f2054161515604051908152f35b34610239576040366003190112610239576118f86131ff565b60243561191060018060a01b036001541633146134d7565b611918613b6f565b7f00000000000000000000000000000000000000000000000000000000000000006001600160a01b03169182156119c4576001600160a01b0316917f525f755cf37e950a7b04b93cee8178d9d0b97d9ca82540787d26d5802f6046fc916020916119b790611987861515613517565b6040519063a9059cbb60e01b85830152866024830152836044830152604482526119b2606483613165565b613ed1565b604051908152a260015f55005b60405162461bcd60e51b815260206004820152600e60248201526d139bdd08115490cc8c081c1bdbdb60921b6044820152606490fd5b611a8f611a89611a34611a2f611a0f36613215565b91611a1e969496959395613b6f565b611a29368789613370565b33613dd5565b613604565b611a3f811515613295565b335f90815260056020526040902054611a61906001600160a01b0316156132d6565b611a7060045460035411613318565b611a82611a7c33613645565b33613b8d565b3691613370565b3361384f565b50337fa359c249f214449711a25d991dd32eb84d60bbef220ea6abc9c72c52eb44816e5f80a260015f55005b3461023957602036600319011261023957600435600e5481101561023957611ae4602091613266565b905460405160039290921b1c6001600160a01b03168152f35b34610239575f36600319011261023957600c546040516001600160a01b039091168152602090f35b34610239575f36600319011261023957602060ff600f54166040519015158152f35b34610239576020366003190112610239576020611b6561022b6131ff565b604051908152f35b34610239575f366003190112610239576020600354604051908152f35b3461023957610018611a89611bb6611a2f611ba436613215565b91611a29969496959395368789613370565b611bc1811515613295565b335f90815260056020526040902054611be3906001600160a01b0316156132d6565b611a8260045460035411613318565b34610239575f36600319011261023957611c1760018060a01b036001541633146134d7565b5f600b557f051ae5307d3be8e3ee1375c49f3d1a58649682f52b6dbc8b84902b7b2fbb59d760206040515f8152a1005b34610239576020366003190112610239576001600160a01b03611c686131ff565b165f526007602052602060405f2054604051908152f35b3461023957606036600319011261023957611c986131ff565b6024356001600160401b03811161023957611cb7903690600401612e66565b906044356001600160401b03811161023957611cd7903690600401612e66565b9093611cee60018060a01b036001541633146134d7565b6001600160a01b039081165f81815260056020526040902054909491611d16911615156133a6565b5f8481526008602052604090209281156121395761053e90855f526005602052611d4c600160405f2001604051938480926130ad565b855f526005602052600160405f2001916001600160401b0384119081610373578790611d8286611d7c8754612ee3565b8761341f565b601f861194865f600188146120d2579080611db0925f9161206057508160011b915f199060031b1c19161790565b90555b815f52600760205260405f205480612000575b508381516020830120611dda368984613370565b6020815191012003611fd6575b50505061037357611dfc83611d7c8754612ee3565b5f91600114611f7257611e2592915f9183611ec45750508160011b915f199060031b1c19161790565b82555b8015611f425760018201906001600160401b03811161037357611e4f816115578454612ee3565b5f601f8211600114611ecf579080611e8b925f5160206140785f395f51905f5296975f92611ec45750508160011b915f199060031b1c19161790565b90555b60028101805467ffffffffffffffff1916426001600160401b031690811790915560405191829161165d9160018101908461349e565b013590508780610909565b601f19821690835f5260205f20915f5b818110611f2a5750968392916001945f5160206140785f395f51905f52989910611f11575b505050811b019055611e8e565b01355f19600384901b60f8161c19169055868080611f04565b9192602060018192868c013581550194019201611edf565b505f5160206140785f395f51905f529192505f60018201611f6c611f668254612ee3565b826133f7565b55611e8e565b601f19831691855f5260205f20925f5b818110611fbe5750908460019594939210611fa5575b505050811b018255611e28565b01355f19600384901b60f8161c19169055868080611f98565b91936020600181928787013581550195019201611f82565b5f5160206140985f395f51905f5291611ff58860405193849384613464565b0390a2868983611de7565b9092505f1981019150811161179f57600161201b89926131aa565b5001915f9261202e876116fa8354612ee3565b865f8760011461206b579080612057925f9161206057508160011b915f199060031b1c19161790565b90555b8a611dc6565b90508701358e611578565b5f8381526020812092508990601f198216905b8181106120b457501061209b575b5050600187811b01905561205a565b8601355f1960038a901b60f8161c191690558b8061208c565b8984013585558e97506001909401936020938401938c93500161207e565b5f8381526020812092508990601f198216905b81811061211b575010612102575b5050600187811b019055611db3565b8601355f1960038a901b60f8161c191690558b806120f3565b8984013585558e97506001909401936020938401938c9350016120e5565b505061214e6121488354612ee3565b836133f7565b5f8255611e28565b346102395760203660031901126102395761216f6131ff565b61218460018060a01b036001541633146134d7565b600c80546001600160a01b0319166001600160a01b039290921691821790557f9a10ceb19ce21f770334df3a59c1dc36aecc30f4bc6029dad8dc31a1b3deb79a5f80a2005b34610239575f36600319011261023957602060405160028152f35b34610239576020366003190112610239576001600160a01b036122056131ff565b165f52600560205261079b61035a612229600160405f2001604051928380926130ad565b604051918291602083526020830190613186565b34610239575f366003190112610239577f00000000000000000000000000000000000000000000000000000000000000006001600160a01b0316475f8261228f575b6040809350519182526020820152f35b506020602492604051938480926370a0823160e01b82523060048301525afa80156122f7575f906122c4575b6040925061227f565b506020823d6020116122ef575b816122de60209383613165565b8101031261023957604091516122bb565b3d91506122d1565b6040513d5f823e3d90fd5b34610239575f3660031901126102395761235960035460045490600b54151560018060a01b036001541690604051936123458561233e81612f1b565b0386613165565b60405195869560e0875260e0870190613186565b7f00000000000000000000000000000000000000000000000000000000000000006001600160a01b031660208701527f000000000000000000000000000000000000000000000000000000000000000060408701526060860194909452608085015260a084015260c08301520390f35b346102395760c036600319011261023957600435600481101561023957602435906001600160401b03821680920361023957604435600281101561023957606435916001600160401b0383116102395736602384011215610239578260040135936001600160401b038511610239573660248660051b8601011161023957608435908115158092036102395760a4358015158091036102395761247760018060a01b036001541633146134d7565b6001850361275e57612487613581565b5f5b878110156125bf576024600582901b880101356001600160a01b03811691908290036102395781156125b6575f828152600560205260409020546001600160a01b03161561257957815f52601060205260ff60405f20541661253e575f828152601060205260409020805460ff19166001179055600e5491600160401b8310156103735761251e836001809501600e55613266565b819291549060031b91821b91858060a01b03901b19161790555b01612489565b60405162461bcd60e51b81526020600482015260136024820152726f7264657220686173206475706c696361746560681b6044820152606490fd5b60405162461bcd60e51b815260206004820152601560248201527437b93232b91030b23239103737ba1036b2b6b132b960591b6044820152606490fd5b60019150612538565b50919395509193505f5b600e5481101561260657806125df600192613266565b838060a01b0391549060031b1c165f52601060205260405f2060ff198154169055016125c9565b509091925b60405190608082018281106001600160401b03821117610373576040526126318161327e565b815260208101928352604081019485526060810193845251926126538461327e565b61265c8461327e565b68ffffffffffffffff00600d54935160081b169451600281101561274a577f1595eddc77f54923a5d919c55dc199a37004a2ff072e45a46254220d54cc6e149560ff95869351151560501b95848060501b1992169069ffffffffffffffffffff191617161780948360501b16918360481b9060481b16171780600d55818019600f54169316809317600f55604051948594165f176126f98161327e565b84526001600160401b038160081c16602085015261271f60408501838360481c16613288565b60501c161515606083015260c0608083015261273d60c083016135c2565b90151560a08301520390a1005b634e487b7160e01b5f52602160045260245ffd5b9291945092945061276d613581565b61260b565b5f36600319011261023957612785613b6f565b61278e33613645565b80156127a45761279e9033613b8d565b60015f55005b60405162461bcd60e51b815260206004820152600c60248201526b105b1c9958591e481c185a5960a21b6044820152606490fd5b34610239575f366003190112610239576020600b541515604051908152f35b611a8f611a89611a3461280936612e93565b9061281694929394613b6f565b613701565b3461023957602036600319011261023957600435600654811015610239576128446001916131aa565b5061078c828060a01b038254169161053e60405180958193016130ad565b34610239576040366003190112610239576004356001600160a01b03811690819003610239576024356128a060018060a01b036001541633146134d7565b6128a8613b6f565b7f00000000000000000000000000000000000000000000000000000000000000006001600160a01b03166129a2576128e1821515613517565b478111612966575f80808084865af16128f8613552565b501561292f5760207fc4825c2033e49b7d8db9d453f0a5953dc550c9452166b576df9f456893f1695f91604051908152a260015f55005b60405162461bcd60e51b815260206004820152600f60248201526e15da5d1a191c985dc819985a5b1959608a1b6044820152606490fd5b60405162461bcd60e51b8152602060048201526014602482015273496e73756666696369656e742062616c616e636560601b6044820152606490fd5b60405162461bcd60e51b815260206004820152600f60248201526e139bdd081b985d1a5d99481c1bdbdb608a1b6044820152606490fd5b34610239576129e736612e93565b335f90815260056020526040902054919291612a0d906001600160a01b031615156133a6565b335f908152600860205260409020918015612e0857335f52600560205261035a612a43600160405f2001604051928380926130ad565b335f526005602052600160405f2001906001600160401b038311908161037357612a71846115e38554612ee3565b601f8411925f8560018614612da45780612a9e925f91612d3557508160011b915f199060031b1c19161790565b90555b335f52600760205260405f205480612cd8575b5080516020820120612ac736868b613370565b6020815191012003612cb0575b5061037357612aed82612ae78654612ee3565b8661341f565b5f90600114612c4d578190612b19939495965f92612c425750508160011b915f199060031b1c19161790565b82555b8015612c275760018201906001600160401b03811161037357612b43816115578454612ee3565b5f601f8211600114612bc5578190612b719394955f92612bba5750508160011b915f199060031b1c19161790565b905560028101805467ffffffffffffffff1916426001600160401b031690811790915560405133925f5160206140785f395f51905f5292829161165d919060018101908461349e565b013590508580610909565b601f19821694835f5260205f20915f5b878110612c0f575083600195969710612bf6575b505050811b019055611616565b01355f19600384901b60f8161c19169055848080612be9565b90926020600181928686013581550194019101612bd5565b5090505f60018201612c3c611f668254612ee3565b55611616565b013590508680610909565b601f19821695845f5260205f20915f5b888110612c9857508360019596979810612c7f575b505050811b018255612b1c565b01355f19600384901b60f8161c19169055858080612c72565b90926020600181928686013581550194019101612c5d565b5f5160206140985f395f51905f5260405180612ccf878c339684613464565b0390a287612ad4565b9091505f19810190811161179f57612cf16001916131aa565b5001905f91612d04856116fa8354612ee3565b5f8585600114612d405780612d2c925f91612d3557508160011b915f199060031b1c19161790565b90555b88612ab4565b90508b01358c611578565b50601f19861690825f528660205f20925f5b8d828210612d8a57505010612d71575b5050600185811b019055612d2f565b8a01355f19600388901b60f8161c191690558980612d62565b84013585556001909401936020938401938a935001612d52565b50601f19861690825f528660205f20925f5b8d828210612dee57505010612dd5575b5050600185811b019055612aa1565b8a01355f19600388901b60f8161c191690558980612dc6565b84013585556001909401936020938401938a935001612db6565b5090919250612e1a6121488354612ee3565b5f8255612b1c565b34610239575f3660031901126102395761079b6040516122298161035a81612f1b565b3461023957610018611a89611bb6612e5c36612e93565b9093919293613701565b9181601f84011215610239578235916001600160401b038311610239576020838186019501011161023957565b6040600319820112610239576004356001600160401b0381116102395781612ebd91600401612e66565b92909291602435906001600160401b03821161023957612edf91600401612e66565b9091565b90600182811c92168015612f11575b6020831014612efd57565b634e487b7160e01b5f52602260045260245ffd5b91607f1691612ef2565b6002545f9291612f2a82612ee3565b8082529160018116908115612f8b5750600114612f45575050565b60025f9081529293509091905f5160206140585f395f51905f525b838310612f71575060209250010190565b600181602092949394548385870101520191019190612f60565b9050602093945060ff929192191683830152151560051b010190565b6011545f9291612fb682612ee3565b8082529160018116908115612f8b5750600114612fd1575050565b60115f9081529293509091907f31ecc21a745e3968a04e9570e4425bc18fa8019c68028196b546d1669c200c685b838310613010575060209250010190565b600181602092949394548385870101520191019190612fff565b6012545f929161303982612ee3565b8082529160018116908115612f8b5750600114613054575050565b60125f9081529293509091907fbb8a6a4669ba250d26cd7a459eca9d215f8307e33aebe50379bc5a3617ec34445b838310613093575060209250010190565b600181602092949394548385870101520191019190613082565b5f92918154916130bc83612ee3565b808352926001811690811561311157506001146130d857505050565b5f9081526020812093945091925b8383106130f7575060209250010190565b6001816020929493945483858701015201910191906130e6565b915050602093945060ff929192191683830152151560051b010190565b6101c081019081106001600160401b0382111761037357604052565b604081019081106001600160401b0382111761037357604052565b90601f801991011681019081106001600160401b0382111761037357604052565b805180835260209291819084018484015e5f828201840152601f01601f1916010190565b6006548110156131c65760065f5260205f209060011b01905f90565b634e487b7160e01b5f52603260045260245ffd5b6001600160a01b0390911681526040602082018190526131fc92910190613186565b90565b600435906001600160a01b038216820361023957565b906060600319830112610239576004356001600160401b038111610239578261324091600401612e66565b9290929160243591604435906001600160401b03821161023957612edf91600401612e66565b600e548110156131c657600e5f5260205f2001905f90565b6004111561274a57565b90600282101561274a5752565b1561329c57565b60405162461bcd60e51b81526020600482015260126024820152711519585b481b985b59481c995c5d5a5c995960721b6044820152606490fd5b156132dd57565b60405162461bcd60e51b81526020600482015260136024820152725465616d20616c72656164792065786973747360681b6044820152606490fd5b1561331f57565b60405162461bcd60e51b815260206004820152600e60248201526d13195859dd59481a5cc8199d5b1b60921b6044820152606490fd5b6001600160401b03811161037357601f01601f191660200190565b92919261337c82613355565b9161338a6040519384613165565b829481845281830111610239578281602093845f960137010152565b156133ad57565b60405162461bcd60e51b815260206004820152600c60248201526b2737ba10309036b2b6b132b960a11b6044820152606490fd5b8181106133ec575050565b5f81556001016133e1565b90601f8111613404575050565b61341d915f52601f60205f20910160051c8101906133e1565b565b9190601f811161342e57505050565b61341d925f5260205f20906020601f840160051c83019310610e1857601f0160051c01906133e1565b9190820391821161179f57565b919260209361347c8293604086526040860190613186565b9385818603910152818452848401375f828201840152601f01601f1916010190565b916134d06001600160401b03916134c26040949796976060875260608701906130ad565b9085820360208701526130ad565b9416910152565b156134de57565b60405162461bcd60e51b815260206004820152601160248201527027b7363c9031b7b6b6b4b9b9b4b7b732b960791b6044820152606490fd5b1561351e57565b60405162461bcd60e51b815260206004820152600c60248201526b5a65726f206164647265737360a01b6044820152606490fd5b3d1561357c573d9061356382613355565b916135716040519384613165565b82523d5f602084013e565b606090565b600e545f600e55806135905750565b600e5f5261341d907fbb7b4a454dc3493923482f07822329ed19e8244eff582cc204f8554c3620c3fd908101906133e1565b6020600e54918281520190600e5f5260205f20905f5b8181106135e55750505090565b82546001600160a01b03168452602090930192600192830192016135d8565b1561360b57565b60405162461bcd60e51b8152602060048201526012602482015271426164206a6f696e207369676e617475726560701b6044820152606490fd5b7f000000000000000000000000000000000000000000000000000000000000000090811561369a576001600160a01b03165f908152600960205260409020548181106136915750505f90565b6131fc91613457565b50505f90565b903590601e198136030182121561023957018035906001600160401b0382116102395760200191813603831361023957565b3560ff811681036102395790565b356001600160401b03811681036102395790565b3580151581036102395790565b90600b54918261371057505050565b61371b913691613370565b602081519101200361372957565b60405162461bcd60e51b815260206004820152600c60248201526b109859081c185cdcdddbdc9960a21b6044820152606490fd5b815181546001600160a01b0319166001600160a01b0391909116178155602091909101518051909291600101906001600160401b038111610373576137a6816115578454612ee3565b6020601f82116001146137e45781906137d59394955f926137d95750508160011b915f199060031b1c19161790565b9055565b015190505f80610909565b601f19821690835f52805f20915f5b81811061382a57509583600195969710613812575b505050811b019055565b01515f1960f88460031b161c191690555f8080613808565b9192602060018192868b0151815501940192016137f3565b9190820180921161179f57565b90916040519161385e8361314a565b60018060a01b031691828152836020820152825f5260056020526138858160405f2061375d565b600654600160401b811015610373578060016138a492016006556131aa565b919091613b5c576138b49161375d565b600654915f19830183811161179f578093825f52600760205260405f20556004546001810180911161179f57600455817f70f6a783feebd5a50b1c5a7108567bb6a864f051e3ce5ffc3157b5244886daea604051602081528061391a602082018a613186565b0390a36001600160401b0342169360405194606086018681106001600160401b0382111761037357604052818652602090604051966139598389613165565b5f885282810197885260408101828152855f526008845260405f2091518051906001600160401b0382116103735761399582612ae78654612ee3565b8590601f8311600114613af9576139c292915f91836137d95750508160011b915f199060031b1c19161790565b82555b6001820198519889516001600160401b038111610373576139ea816115578454612ee3565b859a601f8211600114613a7a5792600292613a37836001600160401b0396945f5160206140785f395f51905f529c9d9e9f88965f926137d95750508160011b915f199060031b1c19161790565b90555b5116920191166001600160401b0319825416179055613a6460405193606085526060850190613186565b905f8483039283858701525260408401520190a2565b601f19821690835f52875f20915f5b818110613ae25750836001600160401b0396935f5160206140785f395f51905f529c9d9e9f60029794899760019510613aca575b505050811b019055613a3a565b01515f1960f88460031b161c191690555f8080613abd565b828f015184559d89019d6001909301928901613a89565b90601f19831691855f52875f20925f5b89828210613b46575050908460019594939210613b2e575b505050811b0182556139c5565b01515f1960f88460031b161c191690555f8080613b21565b6001859682939686015181550195019301613b09565b634e487b7160e01b5f525f60045260245ffd5b60025f5414613b7e5760025f55565b633ee5aeb560e01b5f5260045ffd5b907f00000000000000000000000000000000000000000000000000000000000000006001600160a01b031680613ce55750803410613ca05780613bd591613c37575b34613457565b9081613bdf575050565b5f918291829182916001600160a01b03165af1613bfa613552565b5015613c0257565b60405162461bcd60e51b815260206004820152600d60248201526c1499599d5b990819985a5b1959609a1b6044820152606490fd5b6001600160a01b0383165f8181526009602052604090208054613c5b908490613842565b9055613c6982600a54613842565b600a557f12e0116389566f1f90ea60b4c48731a5301b1a78cd0ada2a7e58d0636e39856a604080518481525f6020820152a2613bcf565b60405162461bcd60e51b815260206004820152601a60248201527f496e73756666696369656e74206e617469766520616d6f756e740000000000006044820152606490fd5b34613d905781613cf457505050565b7f12e0116389566f1f90ea60b4c48731a5301b1a78cd0ada2a7e58d0636e39856a91604091613d5c8351956323b872dd60e01b602088015260018060a01b03169586602482015230604482015283606482015260648152613d56608482613165565b82613ed1565b845f526009602052825f20613d72838254613842565b9055613d8082600a54613842565b600a5582519182526020820152a2565b60405162461bcd60e51b815260206004820152601b60248201527f4e6f206e61746976652077697468204552433230206275792d696e00000000006044820152606490fd5b600c546001600160a01b03169490939091908515613ec657834211613e8b57613e7e94613e7594836020613e6f95519101209060405191602083019330855260018060a01b031660408401526060830152608082015260808152613e3a60a082613165565b5190207f19457468657265756d205369676e6564204d6573736167653a0a3332000000005f52601c52603c5f20923691613370565b90613f29565b90929192613f63565b6001600160a01b03161490565b60405162461bcd60e51b8152602060048201526013602482015272129bda5b881c195c9b5a5d08195e1c1a5c9959606a1b6044820152606490fd5b505050505050600190565b905f602091828151910182855af1156122f7575f513d613f2057506001600160a01b0381163b155b613f005750565b635274afe760e01b5f9081526001600160a01b0391909116600452602490fd5b60011415613ef9565b8151919060418303613f5957613f529250602082015190606060408401519301515f1a90613fdf565b9192909190565b50505f9160029190565b613f6c8161327e565b80613f75575050565b613f7e8161327e565b60018103613f955763f645eedf60e01b5f5260045ffd5b613f9e8161327e565b60028103613fb9575063fce698f760e01b5f5260045260245ffd5b600390613fc58161327e565b14613fcd5750565b6335e2f38360e21b5f5260045260245ffd5b91906fa2a8918ca85bafe22016d0b997e4df60600160ff1b03841161404c579160209360809260ff5f9560405194855216868401526040830152606082015282805260015afa156122f7575f516001600160a01b0381161561404257905f905f90565b505f906001905f90565b5050505f916003919056fe405787fa12a823e0f2b7631cc41b3ba8828b3321ca811111fa75cd3aa3bb5ace1d845006d4ad8621734f8decee2f5bb5e38722bc963098b9cc0ac4274efecec13f17542ff7d3f64632120e1ce858d3f574fb154d6e41d214c46de14f1b0da475a2646970667358221220ac159f6a0448945b405febb3ac8855349e5af660e421574677f01394bfc67f5a64736f6c634300081c0033",
  "linkReferences": {},
  "deployedLinkReferences": {},
  "immutableReferences": {
    "6151": [
      {
        "length": 32,
        "start": 1624
      }
    ],
    "6155": [
      {
        "length": 32,
        "start": 1209
      },
      {
        "length": 32,
        "start": 6426
      },
      {
        "length": 32,
        "start": 8783
      },
      {
        "length": 32,
        "start": 9051
      },
      {
        "length": 32,
        "start": 10410
      },
      {
        "length": 32,
        "start": 15248
      }
    ],
    "6157": [
      {
        "length": 32,
        "start": 1566
      },
      {
        "length": 32,
        "start": 9098
      },
      {
        "length": 32,
        "start": 13895
      }
    ]
  },
  "inputSourceName": "project/contracts/League.sol",
  "buildInfoId": "solc-0_8_28-abe36278e451d2ddda020ca888502ebb279d00a7"
}